{
  "address": "0x6e120Dd795E58bA8eE98ebE1F90f4958065C373f",
  "abi": [
    {
      "anonymous": false,
      "inputs": [
        {
          "indexed": true,
          "internalType": "address",
          "name": "creator",
          "type": "address"
        },
        {
          "indexed": true,
          "internalType": "address",
          "name": "creatorSpace",
          "type": "address"
        },
        {
          "indexed": false,
          "internalType": "string",
          "name": "name",
          "type": "string"
        },
        {
          "indexed": false,
          "internalType": "uint256",
          "name": "membershipPrice",
          "type": "uint256"
        }
      ],
      "name": "CreatorSpaceCreated",
      "type": "event"
    },
    {
      "inputs": [
        {
          "internalType": "uint256",
          "name": "",
          "type": "uint256"
        }
      ],
      "name": "allCreatorSpaces",
      "outputs": [
        {
          "internalType": "address",
          "name": "",
          "type": "address"
        }
      ],
      "stateMutability": "view",
      "type": "function"
    },
    {
      "inputs": [
        {
          "internalType": "string",
          "name": "nftName",
          "type": "string"
        },
        {
          "internalType": "string",
          "name": "nftSymbol",
          "type": "string"
        },
        {
          "internalType": "uint256",
          "name": "membershipPrice",
          "type": "uint256"
        }
      ],
      "name": "createCreatorSpace",
      "outputs": [
        {
          "internalType": "address",
          "name": "",
          "type": "address"
        }
      ],
      "stateMutability": "nonpayable",
      "type": "function"
    },
    {
      "inputs": [
        {
          "internalType": "address",
          "name": "",
          "type": "address"
        },
        {
          "internalType": "uint256",
          "name": "",
          "type": "uint256"
        }
      ],
      "name": "creatorToSpaces",
      "outputs": [
        {
          "internalType": "address",
          "name": "",
          "type": "address"
        }
      ],
      "stateMutability": "view",
      "type": "function"
    },
    {
      "inputs": [],
      "name": "getAllCreatorSpaces",
      "outputs": [
        {
          "internalType": "address[]",
          "name": "",
          "type": "address[]"
        }
      ],
      "stateMutability": "view",
      "type": "function"
    },
    {
      "inputs": [
        {
          "internalType": "address",
          "name": "creator",
          "type": "address"
        }
      ],
      "name": "getCreatorSpaces",
      "outputs": [
        {
          "internalType": "address[]",
          "name": "",
          "type": "address[]"
        }
      ],
      "stateMutability": "view",
      "type": "function"
    },
    {
      "inputs": [],
      "name": "getTotalCreatorSpaces",
      "outputs": [
        {
          "internalType": "uint256",
          "name": "",
          "type": "uint256"
        }
      ],
      "stateMutability": "view",
      "type": "function"
    },
    {
      "inputs": [
        {
          "internalType": "address",
          "name": "",
          "type": "address"
        }
      ],
      "name": "isCreatorSpace",
      "outputs": [
        {
          "internalType": "bool",
          "name": "",
          "type": "bool"
        }
      ],
      "stateMutability": "view",
      "type": "function"
    }
  ],
  "transactionHash": "0xc0b3ae53e31829eab7875b17f9b40afab58c95de4c047f9dc5c1ecf344eb72bd",
  "args": [],
  "numDeployments": 1,
  "solcInputHash": "0995076c61dfa35ed0f75115aa91fb85",
  "bytecode": "0x608060405234801561001057600080fd5b50615d61806100206000396000f3fe60806040523480156200001157600080fd5b5060043610620000875760003560e01c806380aaf884116200006257806380aaf88414620000f7578063b648ceef1462000127578063cccc210b146200013e578063f5194ed4146200015557600080fd5b80633ff85905146200008c5780634cb98dc014620000c757806352856ef114620000e0575b600080fd5b620000b26200009d366004620003e9565b60026020526000908152604090205460ff1681565b60405190151581526020015b60405180910390f35b620000d162000167565b604051620000be91906200040e565b620000d1620000f1366004620003e9565b620001cb565b6200010e620001083660046200045d565b62000243565b6040516001600160a01b039091168152602001620000be565b6200010e6200013836600462000522565b6200026e565b6200010e6200014f36600462000596565b62000385565b600054604051908152602001620000be565b60606000805480602002602001604051908101604052809291908181526020018280548015620001c157602002820191906000526020600020905b81546001600160a01b03168152600190910190602001808311620001a2575b5050505050905090565b6001600160a01b0381166000908152600160209081526040918290208054835181840281018401909452808452606093928301828280156200023757602002820191906000526020600020905b81546001600160a01b0316815260019091019060200180831162000218575b50505050509050919050565b600081815481106200025457600080fd5b6000918252602090912001546001600160a01b0316905081565b600080338585856040516200028390620003be565b6200029294939291906200060b565b604051809103906000f080158015620002af573d6000803e3d6000fd5b5060008054600181810183557f290decd9548b62a8d60345a988386fc84ba6bc95484008f6362f93160ef3e56390910180546001600160a01b0385166001600160a01b0319918216811790925533808552602084815260408087208054808801825590885282882001805490941685179093558386526002905293819020805460ff1916909317909255905192935083929091907f2d9ca7e782e7cae97e1c6281d9c2356407414ad4128da126fb128b8bbdc54cb39062000374908a90899062000657565b60405180910390a395945050505050565b60016020528160005260406000208181548110620003a257600080fd5b6000918252602090912001546001600160a01b03169150829050565b6156b0806200067c83390190565b80356001600160a01b0381168114620003e457600080fd5b919050565b600060208284031215620003fc57600080fd5b6200040782620003cc565b9392505050565b6020808252825182820181905260009190848201906040850190845b81811015620004515783516001600160a01b0316835292840192918401916001016200042a565b50909695505050505050565b6000602082840312156200047057600080fd5b5035919050565b634e487b7160e01b600052604160045260246000fd5b600082601f8301126200049f57600080fd5b813567ffffffffffffffff80821115620004bd57620004bd62000477565b604051601f8301601f19908116603f01168101908282118183101715620004e857620004e862000477565b816040528381528660208588010111156200050257600080fd5b836020870160208301376000602085830101528094505050505092915050565b6000806000606084860312156200053857600080fd5b833567ffffffffffffffff808211156200055157600080fd5b6200055f878388016200048d565b945060208601359150808211156200057657600080fd5b5062000585868287016200048d565b925050604084013590509250925092565b60008060408385031215620005aa57600080fd5b620005b583620003cc565b946020939093013593505050565b6000815180845260005b81811015620005eb57602081850181015186830182015201620005cd565b506000602082860101526020601f19601f83011685010191505092915050565b6001600160a01b03851681526080602082018190526000906200063190830186620005c3565b8281036040840152620006458186620005c3565b91505082606083015295945050505050565b6040815260006200066c6040830185620005c3565b9050826020830152939250505056fe60806040523480156200001157600080fd5b50604051620056b0380380620056b0833981016040819052620000349162000275565b6001600081905580546001600160a01b0319166001600160a01b03861617905560405183908390839087906200006a906200017e565b62000079949392919062000335565b604051809103906000f08015801562000096573d6000803e3d6000fd5b50600280546001600160a01b0319166001600160a01b03929092169190911790556040518490620000c7906200018c565b6001600160a01b039091168152602001604051809103906000f080158015620000f4573d6000803e3d6000fd5b50600380546001600160a01b0319166001600160a01b0392909216919091179055604051849062000125906200019a565b6001600160a01b039091168152602001604051809103906000f08015801562000152573d6000803e3d6000fd5b50600480546001600160a01b0319166001600160a01b0392909216919091179055506200038092505050565b611783806200160383390190565b611bf98062002d8683390190565b610d31806200497f83390190565b634e487b7160e01b600052604160045260246000fd5b60005b83811015620001db578181015183820152602001620001c1565b50506000910152565b600082601f830112620001f657600080fd5b81516001600160401b0380821115620002135762000213620001a8565b604051601f8301601f19908116603f011681019082821181831017156200023e576200023e620001a8565b816040528381528660208588010111156200025857600080fd5b6200026b846020830160208901620001be565b9695505050505050565b600080600080608085870312156200028c57600080fd5b84516001600160a01b0381168114620002a457600080fd5b60208601519094506001600160401b0380821115620002c257600080fd5b620002d088838901620001e4565b94506040870151915080821115620002e757600080fd5b50620002f687828801620001e4565b606096909601519497939650505050565b6000815180845262000321816020860160208601620001be565b601f01601f19169290920160200192915050565b6080815260006200034a608083018762000307565b82810360208401526200035e818762000307565b604084019590955250506001600160a01b039190911660609091015292915050565b61127380620003906000396000f3fe6080604052600436106100e85760003560e01c8063ac2f00741161008a578063e8d5b22d11610059578063e8d5b22d14610274578063f3c2b7f7146102a1578063f7562765146102ce578063f8c860f4146102fb57600080fd5b8063ac2f0074146101f2578063b384abef14610221578063cb56393c14610241578063cf19b7c41461025457600080fd5b806356885cd8116100c657806356885cd81461017b5780639534e6371461019b578063985d0b1e146101bd578063a523b88a146101dd57600080fd5b806302d05d3f146100ed5780630f90d9001461012a57806333b4097b1461014e575b600080fd5b3480156100f957600080fd5b5060015461010d906001600160a01b031681565b6040516001600160a01b0390911681526020015b60405180910390f35b34801561013657600080fd5b5061014060055481565b604051908152602001610121565b34801561015a57600080fd5b5061016e610169366004610caf565b61031b565b6040516101219190610cc8565b34801561018757600080fd5b5060045461010d906001600160a01b031681565b3480156101a757600080fd5b506101bb6101b6366004610caf565b6103cf565b005b3480156101c957600080fd5b5060025461010d906001600160a01b031681565b3480156101e957600080fd5b506101bb610437565b3480156101fe57600080fd5b5061021261020d366004610caf565b61052e565b60405161012193929190610d52565b34801561022d57600080fd5b506101bb61023c366004610d7c565b6105dc565b6101bb61024f366004610e55565b61080c565b34801561026057600080fd5b5060035461010d906001600160a01b031681565b34801561028057600080fd5b5061014061028f366004610e92565b60066020526000908152604090205481565b3480156102ad57600080fd5b506101406102bc366004610e92565b60076020526000908152604090205481565b3480156102da57600080fd5b506102ee6102e9366004610caf565b61098a565b6040516101219190610ec2565b34801561030757600080fd5b50610140610316366004610f24565b610a79565b600081815260096020526040812060018101546060929067ffffffffffffffff81111561034a5761034a610d9e565b604051908082528060200260200182016040528015610373578160200160208202803683370190505b50905060005b60018301548110156103c757600081815260028401602052604090205482518390839081106103aa576103aa611013565b6020908102919091010152806103bf8161103f565b915050610379565b509392505050565b6001546001600160a01b0316331461041c5760405162461bcd60e51b815260206004820152600b60248201526a2737ba1031b932b0ba37b960a91b60448201526064015b60405180910390fd5b6000908152600960205260409020600501805460ff19169055565b60025460405163288c314960e21b81523360048201526001600160a01b039091169063a230c52490602401602060405180830381865afa15801561047f573d6000803e3d6000fd5b505050506040513d601f19601f820116820180604052508101906104a39190611058565b6104bf5760405162461bcd60e51b81526004016104139061107a565b3360009081526006602052604081208054916104da8361103f565b9091555050600580549060006104ef8361103f565b909155505060055460405190815233907f3e0a236119aa7dbac5cfd31309977ad6f3c7f39721b4a28205e1386fef72499a9060200160405180910390a2565b600960205260009081526040902080548190610549906110a0565b80601f0160208091040260200160405190810160405280929190818152602001828054610575906110a0565b80156105c25780601f10610597576101008083540402835291602001916105c2565b820191906000526020600020905b8154815290600101906020018083116105a557829003601f168201915b50505050600483015460059093015491929160ff16905083565b60025460405163288c314960e21b81523360048201526001600160a01b039091169063a230c52490602401602060405180830381865afa158015610624573d6000803e3d6000fd5b505050506040513d601f19601f820116820180604052508101906106489190611058565b6106645760405162461bcd60e51b81526004016104139061107a565b6000828152600960205260409020600581015460ff166106b85760405162461bcd60e51b815260206004820152600f60248201526e506f6c6c206e6f742061637469766560881b6044820152606401610413565b806004015442106106f85760405162461bcd60e51b815260206004820152600a602482015269141bdb1b08195b99195960b21b6044820152606401610413565b33600090815260038201602052604090205460ff161561074a5760405162461bcd60e51b815260206004820152600d60248201526c105b1c9958591e481d9bdd1959609a1b6044820152606401610413565b6001810154821061078e5760405162461bcd60e51b815260206004820152600e60248201526d24b73b30b634b21037b83a34b7b760911b6044820152606401610413565b600082815260028201602052604081208054916107aa8361103f565b909155505033600081815260038301602052604090819020805460ff191660011790555184907f1abe610cf2bf87e57dcc1181fcf5ac0934e843d8344ab9eed6e86c799f62585e906107ff9086815260200190565b60405180910390a3505050565b60025460405163288c314960e21b81523360048201526001600160a01b039091169063a230c52490602401602060405180830381865afa158015610854573d6000803e3d6000fd5b505050506040513d601f19601f820116820180604052508101906108789190611058565b6108945760405162461bcd60e51b81526004016104139061107a565b61089c610bc8565b600034116108dc5760405162461bcd60e51b815260206004820152600d60248201526c09aeae6e840e6cadcc8408aa89609b1b6044820152606401610413565b33600090815260076020526040812080543492906108fb9084906110da565b90915550506001546040516001600160a01b03909116903480156108fc02916000818181858888f19350505050158015610939573d6000803e3d6000fd5b50336001600160a01b03167f4f629a5f1c8e7fc616770a8d34896b447f3457037c40a23347478746309d73c234836040516109759291906110f3565b60405180910390a26109876001600055565b50565b606060096000838152602001908152602001600020600101805480602002602001604051908101604052809291908181526020016000905b82821015610a6e5783829060005260206000200180546109e1906110a0565b80601f0160208091040260200160405190810160405280929190818152602001828054610a0d906110a0565b8015610a5a5780601f10610a2f57610100808354040283529160200191610a5a565b820191906000526020600020905b815481529060010190602001808311610a3d57829003601f168201915b5050505050815260200190600101906109c2565b505050509050919050565b6001546000906001600160a01b03163314610ac45760405162461bcd60e51b815260206004820152600b60248201526a2737ba1031b932b0ba37b960a91b6044820152606401610413565b600283511015610b165760405162461bcd60e51b815260206004820152601760248201527f4e656564206174206c656173742032206f7074696f6e730000000000000000006044820152606401610413565b6008805460009182610b278361103f565b90915550600081815260096020526040902090915080610b47878261115b565b508451610b5d9060018301906020880190610bf2565b50610b6884426110da565b600482015560058101805460ff19166001179055817fc3ad3dd4f77bea708d7c21b918efa79c536b30c5048924662db7a2bd96f4831687610ba987426110da565b604051610bb792919061121b565b60405180910390a250949350505050565b600260005403610beb57604051633ee5aeb560e01b815260040160405180910390fd5b6002600055565b828054828255906000526020600020908101928215610c38579160200282015b82811115610c385782518290610c28908261115b565b5091602001919060010190610c12565b50610c44929150610c48565b5090565b80821115610c44576000610c5c8282610c65565b50600101610c48565b508054610c71906110a0565b6000825580601f10610c81575050565b601f01602090049060005260206000209081019061098791905b80821115610c445760008155600101610c9b565b600060208284031215610cc157600080fd5b5035919050565b6020808252825182820181905260009190848201906040850190845b81811015610d0057835183529284019291840191600101610ce4565b50909695505050505050565b6000815180845260005b81811015610d3257602081850181015186830182015201610d16565b506000602082860101526020601f19601f83011685010191505092915050565b606081526000610d656060830186610d0c565b602083019490945250901515604090910152919050565b60008060408385031215610d8f57600080fd5b50508035926020909101359150565b634e487b7160e01b600052604160045260246000fd5b604051601f8201601f1916810167ffffffffffffffff81118282101715610ddd57610ddd610d9e565b604052919050565b600082601f830112610df657600080fd5b813567ffffffffffffffff811115610e1057610e10610d9e565b610e23601f8201601f1916602001610db4565b818152846020838601011115610e3857600080fd5b816020850160208301376000918101602001919091529392505050565b600060208284031215610e6757600080fd5b813567ffffffffffffffff811115610e7e57600080fd5b610e8a84828501610de5565b949350505050565b600060208284031215610ea457600080fd5b81356001600160a01b0381168114610ebb57600080fd5b9392505050565b6000602080830181845280855180835260408601915060408160051b870101925083870160005b82811015610f1757603f19888603018452610f05858351610d0c565b94509285019290850190600101610ee9565b5092979650505050505050565b600080600060608486031215610f3957600080fd5b833567ffffffffffffffff80821115610f5157600080fd5b610f5d87838801610de5565b9450602091508186013581811115610f7457600080fd5b8601601f81018813610f8557600080fd5b803582811115610f9757610f97610d9e565b8060051b610fa6858201610db4565b918252828101850191858101908b841115610fc057600080fd5b86850192505b83831015610ffc57823586811115610fde5760008081fd5b610fec8d8983890101610de5565b8352509186019190860190610fc6565b989b989a5050505060409690960135955050505050565b634e487b7160e01b600052603260045260246000fd5b634e487b7160e01b600052601160045260246000fd5b60006001820161105157611051611029565b5060010190565b60006020828403121561106a57600080fd5b81518015158114610ebb57600080fd5b6020808252600c908201526b2737ba10309036b2b6b132b960a11b604082015260600190565b600181811c908216806110b457607f821691505b6020821081036110d457634e487b7160e01b600052602260045260246000fd5b50919050565b808201808211156110ed576110ed611029565b92915050565b828152604060208201526000610e8a6040830184610d0c565b601f82111561115657600081815260208120601f850160051c810160208610156111335750805b601f850160051c820191505b818110156111525782815560010161113f565b5050505b505050565b815167ffffffffffffffff81111561117557611175610d9e565b6111898161118384546110a0565b8461110c565b602080601f8311600181146111be57600084156111a65750858301515b600019600386901b1c1916600185901b178555611152565b600085815260208120601f198616915b828110156111ed578886015182559484019460019091019084016111ce565b508582101561120b5787850151600019600388901b60f8161c191681555b5050505050600190811b01905550565b60408152600061122e6040830185610d0c565b9050826020830152939250505056fea2646970667358221220d77ec529413c35408099e891a454b5413c35de8c00bcc449b50ac0876532849664736f6c6343000814003360806040523480156200001157600080fd5b5060405162001783380380620017838339810160408190526200003491620001b6565b8084846000620000458382620002da565b506001620000548282620002da565b5050506001600160a01b0381166200008657604051631e4fbdf760e01b81526000600482015260240160405180910390fd5b62000091816200009f565b505060085550620003a69050565b600680546001600160a01b038381166001600160a01b0319831681179093556040519116919082907f8be0079c531659141344cd1fd0a4f28419497f9722a3daafe3b4186f6b6457e090600090a35050565b634e487b7160e01b600052604160045260246000fd5b600082601f8301126200011957600080fd5b81516001600160401b0380821115620001365762000136620000f1565b604051601f8301601f19908116603f01168101908282118183101715620001615762000161620000f1565b816040528381526020925086838588010111156200017e57600080fd5b600091505b83821015620001a2578582018301518183018401529082019062000183565b600093810190920192909252949350505050565b60008060008060808587031215620001cd57600080fd5b84516001600160401b0380821115620001e557600080fd5b620001f38883890162000107565b955060208701519150808211156200020a57600080fd5b50620002198782880162000107565b60408701516060880151919550935090506001600160a01b03811681146200024057600080fd5b939692955090935050565b600181811c908216806200026057607f821691505b6020821081036200028157634e487b7160e01b600052602260045260246000fd5b50919050565b601f821115620002d557600081815260208120601f850160051c81016020861015620002b05750805b601f850160051c820191505b81811015620002d157828155600101620002bc565b5050505b505050565b81516001600160401b03811115620002f657620002f6620000f1565b6200030e816200030784546200024b565b8462000287565b602080601f8311600181146200034657600084156200032d5750858301515b600019600386901b1c1916600185901b178555620002d1565b600085815260208120601f198616915b82811015620003775788860151825594840194600190910190840162000356565b5085821015620003965787850151600019600388901b60f8161c191681555b5050505050600190811b01905550565b6113cd80620003b66000396000f3fe60806040526004361061012a5760003560e01c806370a08231116100ab578063a22cb4651161006f578063a22cb46514610309578063a230c52414610329578063b88d4fde14610349578063c87b56dd14610369578063e985e9c514610389578063f2fde38b146103a957600080fd5b806370a082311461029957806371231908146102b9578063715018a6146102c15780638da5cb5b146102d657806395d89b41146102f457600080fd5b806323b872dd116100f257806323b872dd146102045780633ccfd60b1461022457806342842e0e146102395780636352211e1461025957806369d5f38a1461027957600080fd5b806301ffc9a71461012f57806306fdde0314610164578063081812fc14610186578063095ea7b3146101be5780630de3226b146101e0575b600080fd5b34801561013b57600080fd5b5061014f61014a366004610ffb565b6103c9565b60405190151581526020015b60405180910390f35b34801561017057600080fd5b5061017961041b565b60405161015b9190611068565b34801561019257600080fd5b506101a66101a136600461107b565b6104ad565b6040516001600160a01b03909116815260200161015b565b3480156101ca57600080fd5b506101de6101d93660046110b0565b6104d6565b005b3480156101ec57600080fd5b506101f660085481565b60405190815260200161015b565b34801561021057600080fd5b506101de61021f3660046110da565b6104e5565b34801561023057600080fd5b506101de610575565b34801561024557600080fd5b506101de6102543660046110da565b6105b9565b34801561026557600080fd5b506101a661027436600461107b565b6105d9565b34801561028557600080fd5b506101de61029436600461107b565b6105e4565b3480156102a557600080fd5b506101f66102b4366004611116565b610627565b6101de61066f565b3480156102cd57600080fd5b506101de610758565b3480156102e257600080fd5b506006546001600160a01b03166101a6565b34801561030057600080fd5b5061017961076c565b34801561031557600080fd5b506101de610324366004611131565b61077b565b34801561033557600080fd5b5061014f610344366004611116565b610786565b34801561035557600080fd5b506101de610364366004611183565b610799565b34801561037557600080fd5b5061017961038436600461107b565b6107b0565b34801561039557600080fd5b5061014f6103a436600461125f565b610825565b3480156103b557600080fd5b506101de6103c4366004611116565b610853565b60006001600160e01b031982166380ac58cd60e01b14806103fa57506001600160e01b03198216635b5e139f60e01b145b8061041557506301ffc9a760e01b6001600160e01b03198316145b92915050565b60606000805461042a90611292565b80601f016020809104026020016040519081016040528092919081815260200182805461045690611292565b80156104a35780601f10610478576101008083540402835291602001916104a3565b820191906000526020600020905b81548152906001019060200180831161048657829003601f168201915b5050505050905090565b60006104b88261088e565b506000828152600460205260409020546001600160a01b0316610415565b6104e18282336108c7565b5050565b6001600160a01b03821661051457604051633250574960e11b8152600060048201526024015b60405180910390fd5b60006105218383336108d4565b9050836001600160a01b0316816001600160a01b03161461056f576040516364283d7b60e01b81526001600160a01b038086166004830152602482018490528216604482015260640161050b565b50505050565b61057d6109cd565b6006546040516001600160a01b03909116904780156108fc02916000818181858888f193505050501580156105b6573d6000803e3d6000fd5b50565b6105d483838360405180602001604052806000815250610799565b505050565b60006104158261088e565b6105ec6109cd565b60088190556040518181527f66cbca4f3c64fecf1dcb9ce094abcf7f68c3450a1d4e3a8e917dd621edb4ebe09060200160405180910390a150565b60006001600160a01b038216610653576040516322718ad960e21b81526000600482015260240161050b565b506001600160a01b031660009081526003602052604090205490565b6008543410156106b85760405162461bcd60e51b8152602060048201526014602482015273125b9cdd59999a58da595b9d081c185e5b595b9d60621b604482015260640161050b565b60078054600091826106c9836112e2565b9190505590506106d933826109fa565b6008543411156107205760085433906108fc906106f690346112fb565b6040518115909202916000818181858888f1935050505015801561071e573d6000803e3d6000fd5b505b60405181815233907fbab4562ae868d1765ed8452e98bba908a974596c4babc3ada5e90e05e3f433fb9060200160405180910390a250565b6107606109cd565b61076a6000610a14565b565b60606001805461042a90611292565b6104e1338383610a66565b60008061079283610627565b1192915050565b6107a48484846104e5565b61056f84848484610b05565b60606107bb8261088e565b5060006107d360408051602081019091526000815290565b905060008151116107f3576040518060200160405280600081525061081e565b806107fd84610c2e565b60405160200161080e92919061130e565b6040516020818303038152906040525b9392505050565b6001600160a01b03918216600090815260056020908152604080832093909416825291909152205460ff1690565b61085b6109cd565b6001600160a01b03811661088557604051631e4fbdf760e01b81526000600482015260240161050b565b6105b681610a14565b6000818152600260205260408120546001600160a01b03168061041557604051637e27328960e01b81526004810184905260240161050b565b6105d48383836001610cc1565b6000828152600260205260408120546001600160a01b039081169083161561090157610901818486610dc7565b6001600160a01b0381161561093f5761091e600085600080610cc1565b6001600160a01b038116600090815260036020526040902080546000190190555b6001600160a01b0385161561096e576001600160a01b0385166000908152600360205260409020805460010190555b60008481526002602052604080822080546001600160a01b0319166001600160a01b0389811691821790925591518793918516917fddf252ad1be2c89b69c2b068fc378daa952ba7f163c4a11628f55a4df523b3ef91a4949350505050565b6006546001600160a01b0316331461076a5760405163118cdaa760e01b815233600482015260240161050b565b6104e1828260405180602001604052806000815250610e2b565b600680546001600160a01b038381166001600160a01b0319831681179093556040519116919082907f8be0079c531659141344cd1fd0a4f28419497f9722a3daafe3b4186f6b6457e090600090a35050565b6001600160a01b038216610a9857604051630b61174360e31b81526001600160a01b038316600482015260240161050b565b6001600160a01b03838116600081815260056020908152604080832094871680845294825291829020805460ff191686151590811790915591519182527f17307eab39ab6107e8899845ad3d59bd9653f200f220920489ca2b5937696c31910160405180910390a3505050565b6001600160a01b0383163b1561056f57604051630a85bd0160e11b81526001600160a01b0384169063150b7a0290610b4790339088908790879060040161133d565b6020604051808303816000875af1925050508015610b82575060408051601f3d908101601f19168201909252610b7f9181019061137a565b60015b610beb573d808015610bb0576040519150601f19603f3d011682016040523d82523d6000602084013e610bb5565b606091505b508051600003610be357604051633250574960e11b81526001600160a01b038516600482015260240161050b565b805181602001fd5b6001600160e01b03198116630a85bd0160e11b14610c2757604051633250574960e11b81526001600160a01b038516600482015260240161050b565b5050505050565b60606000610c3b83610e42565b600101905060008167ffffffffffffffff811115610c5b57610c5b61116d565b6040519080825280601f01601f191660200182016040528015610c85576020820181803683370190505b5090508181016020015b600019016f181899199a1a9b1b9c1cb0b131b232b360811b600a86061a8153600a8504945084610c8f57509392505050565b8080610cd557506001600160a01b03821615155b15610d97576000610ce58461088e565b90506001600160a01b03831615801590610d115750826001600160a01b0316816001600160a01b031614155b8015610d245750610d228184610825565b155b15610d4d5760405163a9fbf51f60e01b81526001600160a01b038416600482015260240161050b565b8115610d955783856001600160a01b0316826001600160a01b03167f8c5be1e5ebec7d5bd14f71427d1e84f3dd0314c0f7b2291e5b200ac8c7c3b92560405160405180910390a45b505b5050600090815260046020526040902080546001600160a01b0319166001600160a01b0392909216919091179055565b610dd2838383610f1a565b6105d4576001600160a01b038316610e0057604051637e27328960e01b81526004810182905260240161050b565b60405163177e802f60e01b81526001600160a01b03831660048201526024810182905260440161050b565b610e358383610f80565b6105d46000848484610b05565b60008072184f03e93ff9f4daa797ed6e38ed64bf6a1f0160401b8310610e815772184f03e93ff9f4daa797ed6e38ed64bf6a1f0160401b830492506040015b6d04ee2d6d415b85acef81000000008310610ead576d04ee2d6d415b85acef8100000000830492506020015b662386f26fc100008310610ecb57662386f26fc10000830492506010015b6305f5e1008310610ee3576305f5e100830492506008015b6127108310610ef757612710830492506004015b60648310610f09576064830492506002015b600a83106104155760010192915050565b60006001600160a01b03831615801590610f785750826001600160a01b0316846001600160a01b03161480610f545750610f548484610825565b80610f7857506000828152600460205260409020546001600160a01b038481169116145b949350505050565b6001600160a01b038216610faa57604051633250574960e11b81526000600482015260240161050b565b6000610fb8838360006108d4565b90506001600160a01b038116156105d4576040516339e3563760e11b81526000600482015260240161050b565b6001600160e01b0319811681146105b657600080fd5b60006020828403121561100d57600080fd5b813561081e81610fe5565b60005b8381101561103357818101518382015260200161101b565b50506000910152565b60008151808452611054816020860160208601611018565b601f01601f19169290920160200192915050565b60208152600061081e602083018461103c565b60006020828403121561108d57600080fd5b5035919050565b80356001600160a01b03811681146110ab57600080fd5b919050565b600080604083850312156110c357600080fd5b6110cc83611094565b946020939093013593505050565b6000806000606084860312156110ef57600080fd5b6110f884611094565b925061110660208501611094565b9150604084013590509250925092565b60006020828403121561112857600080fd5b61081e82611094565b6000806040838503121561114457600080fd5b61114d83611094565b91506020830135801515811461116257600080fd5b809150509250929050565b634e487b7160e01b600052604160045260246000fd5b6000806000806080858703121561119957600080fd5b6111a285611094565b93506111b060208601611094565b925060408501359150606085013567ffffffffffffffff808211156111d457600080fd5b818701915087601f8301126111e857600080fd5b8135818111156111fa576111fa61116d565b604051601f8201601f19908116603f011681019083821181831017156112225761122261116d565b816040528281528a602084870101111561123b57600080fd5b82602086016020830137600060208483010152809550505050505092959194509250565b6000806040838503121561127257600080fd5b61127b83611094565b915061128960208401611094565b90509250929050565b600181811c908216806112a657607f821691505b6020821081036112c657634e487b7160e01b600052602260045260246000fd5b50919050565b634e487b7160e01b600052601160045260246000fd5b6000600182016112f4576112f46112cc565b5060010190565b81810381811115610415576104156112cc565b60008351611320818460208801611018565b835190830190611334818360208801611018565b01949350505050565b6001600160a01b03858116825284166020820152604081018390526080606082018190526000906113709083018461103c565b9695505050505050565b60006020828403121561138c57600080fd5b815161081e81610fe556fea2646970667358221220e867550e9919b82d4b46327fc2db0aa8d886734696760f7ba0d883b90f8d66ca64736f6c6343000814003360806040523480156200001157600080fd5b5060405162001bf938038062001bf98339810160408190526200003491620000f7565b6040805160208101909152600081528190620000508162000093565b506001600160a01b0381166200008057604051631e4fbdf760e01b81526000600482015260240160405180910390fd5b6200008b81620000a5565b50506200029a565b6002620000a18282620001ce565b5050565b600380546001600160a01b038381166001600160a01b0319831681179093556040519116919082907f8be0079c531659141344cd1fd0a4f28419497f9722a3daafe3b4186f6b6457e090600090a35050565b6000602082840312156200010a57600080fd5b81516001600160a01b03811681146200012257600080fd5b9392505050565b634e487b7160e01b600052604160045260246000fd5b600181811c908216806200015457607f821691505b6020821081036200017557634e487b7160e01b600052602260045260246000fd5b50919050565b601f821115620001c957600081815260208120601f850160051c81016020861015620001a45750805b601f850160051c820191505b81811015620001c557828155600101620001b0565b5050505b505050565b81516001600160401b03811115620001ea57620001ea62000129565b6200020281620001fb84546200013f565b846200017b565b602080601f8311600181146200023a5760008415620002215750858301515b600019600386901b1c1916600185901b178555620001c5565b600085815260208120601f198616915b828110156200026b578886015182559484019460019091019084016200024a565b50858210156200028a5787850151600019600388901b60f8161c191681555b5050505050600190811b01905550565b61194f80620002aa6000396000f3fe6080604052600436106100e75760003560e01c8063553cd7651161008a578063a22cb46511610059578063a22cb46514610280578063e985e9c5146102a0578063f242432a146102c0578063f2fde38b146102e057600080fd5b8063553cd76514610210578063715018a6146102235780638da5cb5b1461023857806390cd58191461026057600080fd5b80630e89341c116100c65780630e89341c1461017f5780632eb2c2d6146101ac5780633ccfd60b146101ce5780634e1273f4146101e357600080fd5b8062fdd58e146100ec57806301ffc9a71461011f5780630e73afdf1461014f575b600080fd5b3480156100f857600080fd5b5061010c6101073660046110c5565b610300565b6040519081526020015b60405180910390f35b34801561012b57600080fd5b5061013f61013a366004611105565b610328565b6040519015158152602001610116565b34801561015b57600080fd5b5061016f61016a366004611129565b610378565b6040516101169493929190611188565b34801561018b57600080fd5b5061019f61019a366004611129565b61042b565b60405161011691906111b7565b3480156101b857600080fd5b506101cc6101c7366004611318565b6104d0565b005b3480156101da57600080fd5b506101cc61053c565b3480156101ef57600080fd5b506102036101fe3660046113c2565b610580565b60405161011691906114bd565b6101cc61021e3660046114d0565b610655565b34801561022f57600080fd5b506101cc610826565b34801561024457600080fd5b506003546040516001600160a01b039091168152602001610116565b34801561026c57600080fd5b5061010c61027b3660046114f2565b61083a565b34801561028c57600080fd5b506101cc61029b366004611556565b6108f6565b3480156102ac57600080fd5b5061013f6102bb366004611592565b610905565b3480156102cc57600080fd5b506101cc6102db3660046115c5565b610933565b3480156102ec57600080fd5b506101cc6102fb36600461162a565b610992565b6000818152602081815260408083206001600160a01b03861684529091529020545b92915050565b60006001600160e01b03198216636cdb3d1360e11b148061035957506001600160e01b031982166303a24d0760e21b145b8061032257506301ffc9a760e01b6001600160e01b0319831614610322565b6005602052600090815260409020805460018201546002830154600384018054939492939192916103a890611645565b80601f01602080910402602001604051908101604052809291908181526020018280546103d490611645565b80156104215780601f106103f657610100808354040283529160200191610421565b820191906000526020600020905b81548152906001019060200180831161040457829003601f168201915b5050505050905084565b600081815260056020526040902060030180546060919061044b90611645565b80601f016020809104026020016040519081016040528092919081815260200182805461047790611645565b80156104c45780601f10610499576101008083540402835291602001916104c4565b820191906000526020600020905b8154815290600101906020018083116104a757829003601f168201915b50505050509050919050565b336001600160a01b03861681148015906104f157506104ef8682610905565b155b156105275760405163711bec9160e11b81526001600160a01b038083166004830152871660248201526044015b60405180910390fd5b61053486868686866109cd565b505050505050565b610544610a34565b6003546040516001600160a01b03909116904780156108fc02916000818181858888f1935050505015801561057d573d6000803e3d6000fd5b50565b606081518351146105b15781518351604051635b05999160e01b81526004810192909252602482015260440161051e565b6000835167ffffffffffffffff8111156105cd576105cd6111ca565b6040519080825280602002602001820160405280156105f6578160200160208202803683370190505b50905060005b845181101561064d5760208082028601015161062090602080840287010151610300565b8282815181106106325761063261167f565b6020908102919091010152610646816116ab565b90506105fc565b509392505050565b600082815260056020526040902060018101546106ad5760405162461bcd60e51b815260206004820152601660248201527510dbdb9d195b9d08191bd95cc81b9bdd08195e1a5cdd60521b604482015260640161051e565b80600101548282600201546106c291906116c4565b11156107055760405162461bcd60e51b815260206004820152601260248201527145786365656473206d617820737570706c7960701b604482015260640161051e565b80546107129083906116d7565b3410156107585760405162461bcd60e51b8152602060048201526014602482015273125b9cdd59999a58da595b9d081c185e5b595b9d60621b604482015260640161051e565b8181600201600082825461076c91906116c4565b9250508190555061078e33848460405180602001604052806000815250610a61565b805461079b9083906116d7565b3411156107e957805433906108fc906107b59085906116d7565b6107bf90346116ee565b6040518115909202916000818181858888f193505050501580156107e7573d6000803e3d6000fd5b505b604051828152339084907fc48688bb4f81faa9a189102a2f3a2ff9e3c217037cc67b6a2829672176940242906020015b60405180910390a3505050565b61082e610a34565b6108386000610abe565b565b6000610844610a34565b6004805460009182610855836116ab565b909155506040805160808101825287815260208082018881526000838501818152606085018a81528783526005909452949020835181559051600182015592516002840155519293509160038201906108ae908261174c565b50905050807f5babc075e07d10206474b5fc21410d62a99e15b4c45f33656671be31fcc898368686866040516108e69392919061180c565b60405180910390a2949350505050565b610901338383610b10565b5050565b6001600160a01b03918216600090815260016020908152604080832093909416825291909152205460ff1690565b336001600160a01b038616811480159061095457506109528682610905565b155b156109855760405163711bec9160e11b81526001600160a01b0380831660048301528716602482015260440161051e565b6105348686868686610b9e565b61099a610a34565b6001600160a01b0381166109c457604051631e4fbdf760e01b81526000600482015260240161051e565b61057d81610abe565b6001600160a01b0384166109f757604051632bfa23e760e11b81526000600482015260240161051e565b6001600160a01b038516610a2057604051626a0d4560e21b81526000600482015260240161051e565b610a2d8585858585610c2c565b5050505050565b6003546001600160a01b031633146108385760405163118cdaa760e01b815233600482015260240161051e565b6001600160a01b038416610a8b57604051632bfa23e760e11b81526000600482015260240161051e565b60408051600180825260208201869052818301908152606082018590526080820190925290610534600087848487610c2c565b600380546001600160a01b038381166001600160a01b0319831681179093556040519116919082907f8be0079c531659141344cd1fd0a4f28419497f9722a3daafe3b4186f6b6457e090600090a35050565b6001600160a01b038216610b395760405162ced3e160e81b81526000600482015260240161051e565b6001600160a01b03838116600081815260016020908152604080832094871680845294825291829020805460ff191686151590811790915591519182527f17307eab39ab6107e8899845ad3d59bd9653f200f220920489ca2b5937696c319101610819565b6001600160a01b038416610bc857604051632bfa23e760e11b81526000600482015260240161051e565b6001600160a01b038516610bf157604051626a0d4560e21b81526000600482015260240161051e565b60408051600180825260208201869052818301908152606082018590526080820190925290610c238787848487610c2c565b50505050505050565b610c3885858585610c7f565b6001600160a01b03841615610a2d5782513390600103610c715760208481015190840151610c6a838989858589610e9c565b5050610534565b610534818787878787610fc0565b8051825114610cae5781518151604051635b05999160e01b81526004810192909252602482015260440161051e565b3360005b8351811015610dbd576020818102858101820151908501909101516001600160a01b03881615610d65576000828152602081815260408083206001600160a01b038c16845290915290205481811015610d3e576040516303dee4c560e01b81526001600160a01b038a16600482015260248101829052604481018390526064810184905260840161051e565b6000838152602081815260408083206001600160a01b038d16845290915290209082900390555b6001600160a01b03871615610daa576000828152602081815260408083206001600160a01b038b16845290915281208054839290610da49084906116c4565b90915550505b505080610db6906116ab565b9050610cb2565b508251600103610e3e5760208301516000906020840151909150856001600160a01b0316876001600160a01b0316846001600160a01b03167fc3d58168c5ae7397731d063d5bbf3d657854427343f4c083240f7aacaa2d0f628585604051610e2f929190918252602082015260400190565b60405180910390a45050610a2d565b836001600160a01b0316856001600160a01b0316826001600160a01b03167f4a39dc06d4c0dbc64b70af90fd698a233a518aa5d07e595d983b8c0526c8f7fb8686604051610e8d929190611834565b60405180910390a45050505050565b6001600160a01b0384163b156105345760405163f23a6e6160e01b81526001600160a01b0385169063f23a6e6190610ee09089908990889088908890600401611859565b6020604051808303816000875af1925050508015610f1b575060408051601f3d908101601f19168201909252610f189181019061189e565b60015b610f84573d808015610f49576040519150601f19603f3d011682016040523d82523d6000602084013e610f4e565b606091505b508051600003610f7c57604051632bfa23e760e11b81526001600160a01b038616600482015260240161051e565b805181602001fd5b6001600160e01b0319811663f23a6e6160e01b14610c2357604051632bfa23e760e11b81526001600160a01b038616600482015260240161051e565b6001600160a01b0384163b156105345760405163bc197c8160e01b81526001600160a01b0385169063bc197c819061100490899089908890889088906004016118bb565b6020604051808303816000875af192505050801561103f575060408051601f3d908101601f1916820190925261103c9181019061189e565b60015b61106d573d808015610f49576040519150601f19603f3d011682016040523d82523d6000602084013e610f4e565b6001600160e01b0319811663bc197c8160e01b14610c2357604051632bfa23e760e11b81526001600160a01b038616600482015260240161051e565b80356001600160a01b03811681146110c057600080fd5b919050565b600080604083850312156110d857600080fd5b6110e1836110a9565b946020939093013593505050565b6001600160e01b03198116811461057d57600080fd5b60006020828403121561111757600080fd5b8135611122816110ef565b9392505050565b60006020828403121561113b57600080fd5b5035919050565b6000815180845260005b818110156111685760208185018101518683018201520161114c565b506000602082860101526020601f19601f83011685010191505092915050565b8481528360208201528260408201526080606082015260006111ad6080830184611142565b9695505050505050565b6020815260006111226020830184611142565b634e487b7160e01b600052604160045260246000fd5b604051601f8201601f1916810167ffffffffffffffff81118282101715611209576112096111ca565b604052919050565b600067ffffffffffffffff82111561122b5761122b6111ca565b5060051b60200190565b600082601f83011261124657600080fd5b8135602061125b61125683611211565b6111e0565b82815260059290921b8401810191818101908684111561127a57600080fd5b8286015b84811015611295578035835291830191830161127e565b509695505050505050565b600067ffffffffffffffff8311156112ba576112ba6111ca565b6112cd601f8401601f19166020016111e0565b90508281528383830111156112e157600080fd5b828260208301376000602084830101529392505050565b600082601f83011261130957600080fd5b611122838335602085016112a0565b600080600080600060a0868803121561133057600080fd5b611339866110a9565b9450611347602087016110a9565b9350604086013567ffffffffffffffff8082111561136457600080fd5b61137089838a01611235565b9450606088013591508082111561138657600080fd5b61139289838a01611235565b935060808801359150808211156113a857600080fd5b506113b5888289016112f8565b9150509295509295909350565b600080604083850312156113d557600080fd5b823567ffffffffffffffff808211156113ed57600080fd5b818501915085601f83011261140157600080fd5b8135602061141161125683611211565b82815260059290921b8401810191818101908984111561143057600080fd5b948201945b8386101561145557611446866110a9565b82529482019490820190611435565b9650508601359250508082111561146b57600080fd5b5061147885828601611235565b9150509250929050565b600081518084526020808501945080840160005b838110156114b257815187529582019590820190600101611496565b509495945050505050565b6020815260006111226020830184611482565b600080604083850312156114e357600080fd5b50508035926020909101359150565b60008060006060848603121561150757600080fd5b8335925060208401359150604084013567ffffffffffffffff81111561152c57600080fd5b8401601f8101861361153d57600080fd5b61154c868235602084016112a0565b9150509250925092565b6000806040838503121561156957600080fd5b611572836110a9565b91506020830135801515811461158757600080fd5b809150509250929050565b600080604083850312156115a557600080fd5b6115ae836110a9565b91506115bc602084016110a9565b90509250929050565b600080600080600060a086880312156115dd57600080fd5b6115e6866110a9565b94506115f4602087016110a9565b93506040860135925060608601359150608086013567ffffffffffffffff81111561161e57600080fd5b6113b5888289016112f8565b60006020828403121561163c57600080fd5b611122826110a9565b600181811c9082168061165957607f821691505b60208210810361167957634e487b7160e01b600052602260045260246000fd5b50919050565b634e487b7160e01b600052603260045260246000fd5b634e487b7160e01b600052601160045260246000fd5b6000600182016116bd576116bd611695565b5060010190565b8082018082111561032257610322611695565b808202811582820484141761032257610322611695565b8181038181111561032257610322611695565b601f82111561174757600081815260208120601f850160051c810160208610156117285750805b601f850160051c820191505b8181101561053457828155600101611734565b505050565b815167ffffffffffffffff811115611766576117666111ca565b61177a816117748454611645565b84611701565b602080601f8311600181146117af57600084156117975750858301515b600019600386901b1c1916600185901b178555610534565b600085815260208120601f198616915b828110156117de578886015182559484019460019091019084016117bf565b50858210156117fc5787850151600019600388901b60f8161c191681555b5050505050600190811b01905550565b83815282602082015260606040820152600061182b6060830184611142565b95945050505050565b6040815260006118476040830185611482565b828103602084015261182b8185611482565b6001600160a01b03868116825285166020820152604081018490526060810183905260a06080820181905260009061189390830184611142565b979650505050505050565b6000602082840312156118b057600080fd5b8151611122816110ef565b6001600160a01b0386811682528516602082015260a0604082018190526000906118e790830186611482565b82810360608401526118f98186611482565b9050828103608084015261190d8185611142565b9897505050505050505056fea2646970667358221220c661152ee72e3b22bcfb20a143f8779c99abee41f662d87c97eb3f3ce625966564736f6c63430008140033608060405234801561001057600080fd5b50604051610d31380380610d3183398101604081905261002f916100c2565b806001600160a01b03811661005e57604051631e4fbdf760e01b81526000600482015260240160405180910390fd5b61006781610072565b5050600180556100f2565b600080546001600160a01b038381166001600160a01b0319831681178455604051919092169283917f8be0079c531659141344cd1fd0a4f28419497f9722a3daafe3b4186f6b6457e09190a35050565b6000602082840312156100d457600080fd5b81516001600160a01b03811681146100eb57600080fd5b9392505050565b610c30806101016000396000f3fe6080604052600436106100915760003560e01c8063715018a611610059578063715018a6146101a85780638da5cb5b146101bd578063a31ec2d4146101e5578063c1cbbca714610205578063f2fde38b1461021857600080fd5b8063141961bc14610096578063155dd5ee14610100578063278ecde1146101225780633d891f59146101425780636b5ca27d14610188575b600080fd5b3480156100a257600080fd5b506100e66100b1366004610a2e565b600360208190526000918252604090912080546001820154600283015492909301549092919060ff8082169161010090041685565b6040516100f7959493929190610a81565b60405180910390f35b34801561010c57600080fd5b5061012061011b366004610a2e565b610238565b005b34801561012e57600080fd5b5061012061013d366004610a2e565b610368565b34801561014e57600080fd5b5061017a61015d366004610ad6565b600460209081526000928352604080842090915290825290205481565b6040519081526020016100f7565b34801561019457600080fd5b506101206101a3366004610a2e565b6104ef565b3480156101b457600080fd5b50610120610676565b3480156101c957600080fd5b506000546040516001600160a01b0390911681526020016100f7565b3480156101f157600080fd5b5061017a610200366004610b02565b61068a565b610120610213366004610a2e565b6107c4565b34801561022457600080fd5b50610120610233366004610b3f565b61094c565b610240610987565b6102486109b4565b60008181526003602052604090206001600382810154610100900460ff169081111561027657610276610a47565b146102c85760405162461bcd60e51b815260206004820152601760248201527f43616d706169676e206e6f74207375636365737366756c00000000000000000060448201526064015b60405180910390fd5b60028101805460009182905560038301805461ff001916610300179055815460405191926001600160a01b039091169183156108fc0291849190818181858888f1935050505015801561031f573d6000803e3d6000fd5b50827fd66662c0ded9e58fd31d5e44944bcfd07ffc15e6927ecc1382e7941cb7bd24c48260405161035291815260200190565b60405180910390a2505061036560018055565b50565b6103706109b4565b60008181526003602052604090206002600382810154610100900460ff169081111561039e5761039e610a47565b146103e35760405162461bcd60e51b8152602060048201526015602482015274526566756e6473206e6f7420617661696c61626c6560581b60448201526064016102bf565b60008281526004602090815260408083203384529091529020548061044a5760405162461bcd60e51b815260206004820152601960248201527f4e6f20636f6e747269627574696f6e20746f20726566756e640000000000000060448201526064016102bf565b6000838152600460209081526040808320338452909152812081905560028301805483929061047a908490610b77565b9091555050604051339082156108fc029083906000818181858888f193505050501580156104ac573d6000803e3d6000fd5b50604051818152339084907f7ca5472b7ea78c2c0141c5a12ee6d170cf4ce8ed06be3d22c8252ddfc7a6a2c49060200160405180910390a3505061036560018055565b600081815260036020526040812090600382810154610100900460ff169081111561051c5761051c610a47565b1461055f5760405162461bcd60e51b815260206004820152601360248201527243616d706169676e206e6f742061637469766560681b60448201526064016102bf565b80600101544210156105ac5760405162461bcd60e51b815260206004820152601660248201527543616d706169676e207374696c6c206f6e676f696e6760501b60448201526064016102bf565b80546002820154106105ce5760038101805461ff001916610100179055610623565b6000600382015460ff1660018111156105e9576105e9610a47565b146105f55760016105f8565b60025b8160030160016101000a81548160ff0219169083600381111561061d5761061d610a47565b02179055505b817f242b7d43c73f615dfdfa4919702ad9db4880a3b095d19100eb73c3d05e92be158260030160019054906101000a900460ff16836002015460405161066a929190610b90565b60405180910390a25050565b61067e610987565b61068860006109de565b565b6000610694610987565b60028054600091826106a583610bab565b9190505590506040518060a0016040528086815260200185426106c89190610bc4565b8152602001600081526020018460018111156106e6576106e6610a47565b8152602001600090526000828152600360208181526040928390208451815590840151600180830191909155928401516002820155606084015191810180549193909160ff191690838181111561073f5761073f610a47565b021790555060808201518160030160016101000a81548160ff0219169083600381111561076e5761076e610a47565b02179055508291507f773f71a4c22bd4be60ea1217b6a12317409936f776458fb130c6bdd9984741f29050866107a48742610bc4565b866040516107b493929190610bd7565b60405180910390a2949350505050565b600081815260036020526040812090600382810154610100900460ff16908111156107f1576107f1610a47565b146108345760405162461bcd60e51b815260206004820152601360248201527243616d706169676e206e6f742061637469766560681b60448201526064016102bf565b806001015442106108785760405162461bcd60e51b815260206004820152600e60248201526d10d85b5c185a59db88195b99195960921b60448201526064016102bf565b600034116108c85760405162461bcd60e51b815260206004820152601960248201527f4d75737420636f6e7472696275746520736f6d657468696e670000000000000060448201526064016102bf565b6000828152600460209081526040808320338452909152812080543492906108f1908490610bc4565b925050819055503481600201600082825461090c9190610bc4565b9091555050604051348152339083907f0a4a91237423e0a1766a761c7cb029311d8b95d6b1b81db1b949a70c98b4e08e9060200160405180910390a35050565b610954610987565b6001600160a01b03811661097e57604051631e4fbdf760e01b8152600060048201526024016102bf565b610365816109de565b6000546001600160a01b031633146106885760405163118cdaa760e01b81523360048201526024016102bf565b6002600154036109d757604051633ee5aeb560e01b815260040160405180910390fd5b6002600155565b600080546001600160a01b038381166001600160a01b0319831681178455604051919092169283917f8be0079c531659141344cd1fd0a4f28419497f9722a3daafe3b4186f6b6457e09190a35050565b600060208284031215610a4057600080fd5b5035919050565b634e487b7160e01b600052602160045260246000fd5b60028110610a6d57610a6d610a47565b9052565b60048110610a6d57610a6d610a47565b858152602081018590526040810184905260a08101610aa36060830185610a5d565b610ab06080830184610a71565b9695505050505050565b80356001600160a01b0381168114610ad157600080fd5b919050565b60008060408385031215610ae957600080fd5b82359150610af960208401610aba565b90509250929050565b600080600060608486031215610b1757600080fd5b8335925060208401359150604084013560028110610b3457600080fd5b809150509250925092565b600060208284031215610b5157600080fd5b610b5a82610aba565b9392505050565b634e487b7160e01b600052601160045260246000fd5b81810381811115610b8a57610b8a610b61565b92915050565b60408101610b9e8285610a71565b8260208301529392505050565b600060018201610bbd57610bbd610b61565b5060010190565b80820180821115610b8a57610b8a610b61565b8381526020810183905260608101610bf26040830184610a5d565b94935050505056fea26469706673582212201e49d418d066beb765374885ebcc58a24293b071b19c3eeed0925567f2f6d4b764736f6c63430008140033a264697066735822122046b99a95c78a5a6f856c513bd3ae016d88d376fc08c506eb694c4fbc41f7cdc064736f6c63430008140033",
  "devdoc": {
    "kind": "dev",
    "methods": {},
    "version": 1
  },
  "userdoc": {
    "kind": "user",
    "methods": {},
    "version": 1
  },
  "storageLayout": {
    "storage": [
      {
        "astId": 4536,
        "contract": "contracts/CreatorPlatform.sol:CreatorPlatform",
        "label": "allCreatorSpaces",
        "offset": 0,
        "slot": "0",
        "type": "t_array(t_address)dyn_storage"
      },
      {
        "astId": 4541,
        "contract": "contracts/CreatorPlatform.sol:CreatorPlatform",
        "label": "creatorToSpaces",
        "offset": 0,
        "slot": "1",
        "type": "t_mapping(t_address,t_array(t_address)dyn_storage)"
      },
      {
        "astId": 4545,
        "contract": "contracts/CreatorPlatform.sol:CreatorPlatform",
        "label": "isCreatorSpace",
        "offset": 0,
        "slot": "2",
        "type": "t_mapping(t_address,t_bool)"
      }
    ],
    "types": {
      "t_address": {
        "encoding": "inplace",
        "label": "address",
        "numberOfBytes": "20"
      },
      "t_array(t_address)dyn_storage": {
        "base": "t_address",
        "encoding": "dynamic_array",
        "label": "address[]",
        "numberOfBytes": "32"
      },
      "t_bool": {
        "encoding": "inplace",
        "label": "bool",
        "numberOfBytes": "1"
      },
      "t_mapping(t_address,t_array(t_address)dyn_storage)": {
        "encoding": "mapping",
        "key": "t_address",
        "label": "mapping(address => address[])",
        "numberOfBytes": "32",
        "value": "t_array(t_address)dyn_storage"
      },
      "t_mapping(t_address,t_bool)": {
        "encoding": "mapping",
        "key": "t_address",
        "label": "mapping(address => bool)",
        "numberOfBytes": "32",
        "value": "t_bool"
      }
    }
  }
}