{
  "address": "0xedec0330eC333af87a52121F28573aaa34610299",
  "abi": [
    {
      "anonymous": false,
      "inputs": [
        {
          "indexed": true,
          "internalType": "address",
          "name": "creator",
          "type": "address"
        },
        {
          "indexed": true,
          "internalType": "address",
          "name": "creatorSpace",
          "type": "address"
        },
        {
          "indexed": false,
          "internalType": "string",
          "name": "name",
          "type": "string"
        },
        {
          "indexed": false,
          "internalType": "uint256",
          "name": "membershipPrice",
          "type": "uint256"
        }
      ],
      "name": "CreatorSpaceCreated",
      "type": "event"
    },
    {
      "inputs": [
        {
          "internalType": "uint256",
          "name": "",
          "type": "uint256"
        }
      ],
      "name": "allCreatorSpaces",
      "outputs": [
        {
          "internalType": "address",
          "name": "",
          "type": "address"
        }
      ],
      "stateMutability": "view",
      "type": "function"
    },
    {
      "inputs": [
        {
          "internalType": "string",
          "name": "nftName",
          "type": "string"
        },
        {
          "internalType": "string",
          "name": "nftSymbol",
          "type": "string"
        },
        {
          "internalType": "string",
          "name": "description",
          "type": "string"
        },
        {
          "internalType": "uint256",
          "name": "membershipPrice",
          "type": "uint256"
        }
      ],
      "name": "createCreatorSpace",
      "outputs": [
        {
          "internalType": "address",
          "name": "",
          "type": "address"
        }
      ],
      "stateMutability": "nonpayable",
      "type": "function"
    },
    {
      "inputs": [
        {
          "internalType": "address",
          "name": "",
          "type": "address"
        },
        {
          "internalType": "uint256",
          "name": "",
          "type": "uint256"
        }
      ],
      "name": "creatorToSpaces",
      "outputs": [
        {
          "internalType": "address",
          "name": "",
          "type": "address"
        }
      ],
      "stateMutability": "view",
      "type": "function"
    },
    {
      "inputs": [],
      "name": "getAllCreatorSpaces",
      "outputs": [
        {
          "internalType": "address[]",
          "name": "",
          "type": "address[]"
        }
      ],
      "stateMutability": "view",
      "type": "function"
    },
    {
      "inputs": [
        {
          "internalType": "address",
          "name": "creator",
          "type": "address"
        }
      ],
      "name": "getCreatorSpaces",
      "outputs": [
        {
          "internalType": "address[]",
          "name": "",
          "type": "address[]"
        }
      ],
      "stateMutability": "view",
      "type": "function"
    },
    {
      "inputs": [],
      "name": "getTotalCreatorSpaces",
      "outputs": [
        {
          "internalType": "uint256",
          "name": "",
          "type": "uint256"
        }
      ],
      "stateMutability": "view",
      "type": "function"
    },
    {
      "inputs": [
        {
          "internalType": "address",
          "name": "",
          "type": "address"
        }
      ],
      "name": "isCreatorSpace",
      "outputs": [
        {
          "internalType": "bool",
          "name": "",
          "type": "bool"
        }
      ],
      "stateMutability": "view",
      "type": "function"
    }
  ],
  "transactionHash": "0x77bbd6e8c9a229f3b0541e2c7a4a0951e5c897ccdda7e9ae83fe8800cdef96b2",
  "args": [],
  "numDeployments": 1,
  "solcInputHash": "11d6615e37eee5912d847b6fb6e023e5",
  "bytecode": "0x608060405234801561001057600080fd5b50615fe4806100206000396000f3fe60806040523480156200001157600080fd5b5060043610620000765760003560e01c80633ff85905146200007b5780634cb98dc014620000b657806352856ef114620000cf57806380aaf88414620000e6578063cccc210b1462000116578063f5194ed4146200012d578063fcc72630146200013f575b600080fd5b620000a16200008c366004620003db565b60026020526000908152604090205460ff1681565b60405190151581526020015b60405180910390f35b620000c062000156565b604051620000ad919062000400565b620000c0620000e0366004620003db565b620001ba565b620000fd620000f73660046200044f565b62000232565b6040516001600160a01b039091168152602001620000ad565b620000fd6200012736600462000469565b6200025d565b600054604051908152602001620000ad565b620000fd6200015036600462000540565b62000296565b60606000805480602002602001604051908101604052809291908181526020018280548015620001b057602002820191906000526020600020905b81546001600160a01b0316815260019091019060200180831162000191575b5050505050905090565b6001600160a01b0381166000908152600160209081526040918290208054835181840281018401909452808452606093928301828280156200022657602002820191906000526020600020905b81546001600160a01b0316815260019091019060200180831162000207575b50505050509050919050565b600081815481106200024357600080fd5b6000918252602090912001546001600160a01b0316905081565b600160205281600052604060002081815481106200027a57600080fd5b6000918252602090912001546001600160a01b03169150829050565b6000803386868686604051620002ac90620003b0565b620002bc95949392919062000621565b604051809103906000f080158015620002d9573d6000803e3d6000fd5b5060008054600181810183557f290decd9548b62a8d60345a988386fc84ba6bc95484008f6362f93160ef3e56390910180546001600160a01b0385166001600160a01b0319918216811790925533808552602084815260408087208054808801825590885282882001805490941685179093558386526002905293819020805460ff1916909317909255905192935083929091907f2d9ca7e782e7cae97e1c6281d9c2356407414ad4128da126fb128b8bbdc54cb3906200039e908b90899062000684565b60405180910390a39695505050505050565b61590680620006a983390190565b80356001600160a01b0381168114620003d657600080fd5b919050565b600060208284031215620003ee57600080fd5b620003f982620003be565b9392505050565b6020808252825182820181905260009190848201906040850190845b81811015620004435783516001600160a01b0316835292840192918401916001016200041c565b50909695505050505050565b6000602082840312156200046257600080fd5b5035919050565b600080604083850312156200047d57600080fd5b6200048883620003be565b946020939093013593505050565b634e487b7160e01b600052604160045260246000fd5b600082601f830112620004be57600080fd5b81356001600160401b0380821115620004db57620004db62000496565b604051601f8301601f19908116603f0116810190828211818310171562000506576200050662000496565b816040528381528660208588010111156200052057600080fd5b836020870160208301376000602085830101528094505050505092915050565b600080600080608085870312156200055757600080fd5b84356001600160401b03808211156200056f57600080fd5b6200057d88838901620004ac565b955060208701359150808211156200059457600080fd5b620005a288838901620004ac565b94506040870135915080821115620005b957600080fd5b50620005c887828801620004ac565b949793965093946060013593505050565b6000815180845260005b818110156200060157602081850181015186830182015201620005e3565b506000602082860101526020601f19601f83011685010191505092915050565b6001600160a01b038616815260a0602082018190526000906200064790830187620005d9565b82810360408401526200065b8187620005d9565b90508281036060840152620006718186620005d9565b9150508260808301529695505050505050565b604081526000620006996040830185620005d9565b9050826020830152939250505056fe60806040523480156200001157600080fd5b506040516200590638038062005906833981016040819052620000349162000281565b6001600081905580546001600160a01b0319166001600160a01b0387161790556006620000628382620003cc565b508383828760405162000075906200018a565b620000849493929190620004c6565b604051809103906000f080158015620000a1573d6000803e3d6000fd5b50600280546001600160a01b0319166001600160a01b03929092169190911790556040518590620000d29062000198565b6001600160a01b039091168152602001604051809103906000f080158015620000ff573d6000803e3d6000fd5b50600380546001600160a01b0319166001600160a01b039290921691909117905560405185906200013090620001a6565b6001600160a01b039091168152602001604051809103906000f0801580156200015d573d6000803e3d6000fd5b50600480546001600160a01b0319166001600160a01b039290921691909117905550620005119350505050565b61179c806200182f83390190565b611c208062002fcb83390190565b610d1b8062004beb83390190565b634e487b7160e01b600052604160045260246000fd5b60005b83811015620001e7578181015183820152602001620001cd565b50506000910152565b600082601f8301126200020257600080fd5b81516001600160401b03808211156200021f576200021f620001b4565b604051601f8301601f19908116603f011681019082821181831017156200024a576200024a620001b4565b816040528381528660208588010111156200026457600080fd5b62000277846020830160208901620001ca565b9695505050505050565b600080600080600060a086880312156200029a57600080fd5b85516001600160a01b0381168114620002b257600080fd5b60208701519095506001600160401b0380821115620002d057600080fd5b620002de89838a01620001f0565b95506040880151915080821115620002f557600080fd5b6200030389838a01620001f0565b945060608801519150808211156200031a57600080fd5b506200032988828901620001f0565b925050608086015190509295509295909350565b600181811c908216806200035257607f821691505b6020821081036200037357634e487b7160e01b600052602260045260246000fd5b50919050565b601f821115620003c757600081815260208120601f850160051c81016020861015620003a25750805b601f850160051c820191505b81811015620003c357828155600101620003ae565b5050505b505050565b81516001600160401b03811115620003e857620003e8620001b4565b6200040081620003f984546200033d565b8462000379565b602080601f8311600181146200043857600084156200041f5750858301515b600019600386901b1c1916600185901b178555620003c3565b600085815260208120601f198616915b82811015620004695788860151825594840194600190910190840162000448565b5085821015620004885787850151600019600388901b60f8161c191681555b5050505050600190811b01905550565b60008151808452620004b2816020860160208601620001ca565b601f01601f19169290920160200192915050565b608081526000620004db608083018762000498565b8281036020840152620004ef818762000498565b604084019590955250506001600160a01b039190911660609091015292915050565b61130e80620005216000396000f3fe6080604052600436106100c35760003560e01c806302d05d3f146100c85780630f90d900146100fe57806333b4097b1461012257806356885cd81461014f5780637284e4161461016f5780639534e63714610191578063985d0b1e146101b3578063a523b88a146101d3578063ac2f0074146101e8578063b384abef14610217578063cb56393c14610237578063cf19b7c41461024a578063e8d5b22d1461026a578063f3c2b7f714610297578063f7562765146102c4578063f8c860f4146102f1575b600080fd5b3480156100d457600080fd5b506001546100e8906001600160a01b031681565b6040516100f59190610d03565b60405180910390f35b34801561010a57600080fd5b5061011460055481565b6040519081526020016100f5565b34801561012e57600080fd5b5061014261013d366004610d17565b610311565b6040516100f59190610d30565b34801561015b57600080fd5b506004546100e8906001600160a01b031681565b34801561017b57600080fd5b506101846103c4565b6040516100f59190610dba565b34801561019d57600080fd5b506101b16101ac366004610d17565b610452565b005b3480156101bf57600080fd5b506002546100e8906001600160a01b031681565b3480156101df57600080fd5b506101b16104a0565b3480156101f457600080fd5b50610208610203366004610d17565b61059c565b6040516100f593929190610dd4565b34801561022357600080fd5b506101b1610232366004610dfe565b61064a565b6101b1610245366004610ed5565b61087f565b34801561025657600080fd5b506003546100e8906001600160a01b031681565b34801561027657600080fd5b50610114610285366004610f11565b60076020526000908152604090205481565b3480156102a357600080fd5b506101146102b2366004610f11565b60086020526000908152604090205481565b3480156102d057600080fd5b506102e46102df366004610d17565b610a02565b6040516100f59190610f3a565b3480156102fd57600080fd5b5061011461030c366004610f9c565b610af1565b6000818152600a602052604081206001810154606092906001600160401b0381111561033f5761033f610e20565b604051908082528060200260200182016040528015610368578160200160208202803683370190505b50905060005b60018301548110156103bc576000818152600284016020526040902054825183908390811061039f5761039f61108a565b6020908102919091010152806103b4816110b6565b91505061036e565b509392505050565b600680546103d1906110cf565b80601f01602080910402602001604051908101604052809291908181526020018280546103fd906110cf565b801561044a5780601f1061041f5761010080835404028352916020019161044a565b820191906000526020600020905b81548152906001019060200180831161042d57829003601f168201915b505050505081565b6001546001600160a01b031633146104855760405162461bcd60e51b815260040161047c90611109565b60405180910390fd5b6000908152600a60205260409020600501805460ff19169055565b60025460405163288c314960e21b81526001600160a01b039091169063a230c524906104d0903390600401610d03565b602060405180830381865afa1580156104ed573d6000803e3d6000fd5b505050506040513d601f19601f82011682018060405250810190610511919061112e565b61052d5760405162461bcd60e51b815260040161047c90611150565b336000908152600760205260408120805491610548836110b6565b90915550506005805490600061055d836110b6565b909155505060055460405190815233907f3e0a236119aa7dbac5cfd31309977ad6f3c7f39721b4a28205e1386fef72499a9060200160405180910390a2565b600a602052600090815260409020805481906105b7906110cf565b80601f01602080910402602001604051908101604052809291908181526020018280546105e3906110cf565b80156106305780601f1061060557610100808354040283529160200191610630565b820191906000526020600020905b81548152906001019060200180831161061357829003601f168201915b50505050600483015460059093015491929160ff16905083565b60025460405163288c314960e21b81526001600160a01b039091169063a230c5249061067a903390600401610d03565b602060405180830381865afa158015610697573d6000803e3d6000fd5b505050506040513d601f19601f820116820180604052508101906106bb919061112e565b6106d75760405162461bcd60e51b815260040161047c90611150565b6000828152600a60205260409020600581015460ff1661072b5760405162461bcd60e51b815260206004820152600f60248201526e506f6c6c206e6f742061637469766560881b604482015260640161047c565b8060040154421061076b5760405162461bcd60e51b815260206004820152600a602482015269141bdb1b08195b99195960b21b604482015260640161047c565b33600090815260038201602052604090205460ff16156107bd5760405162461bcd60e51b815260206004820152600d60248201526c105b1c9958591e481d9bdd1959609a1b604482015260640161047c565b600181015482106108015760405162461bcd60e51b815260206004820152600e60248201526d24b73b30b634b21037b83a34b7b760911b604482015260640161047c565b6000828152600282016020526040812080549161081d836110b6565b909155505033600081815260038301602052604090819020805460ff191660011790555184907f1abe610cf2bf87e57dcc1181fcf5ac0934e843d8344ab9eed6e86c799f62585e906108729086815260200190565b60405180910390a3505050565b60025460405163288c314960e21b81526001600160a01b039091169063a230c524906108af903390600401610d03565b602060405180830381865afa1580156108cc573d6000803e3d6000fd5b505050506040513d601f19601f820116820180604052508101906108f0919061112e565b61090c5760405162461bcd60e51b815260040161047c90611150565b610914610c1c565b600034116109545760405162461bcd60e51b815260206004820152600d60248201526c09aeae6e840e6cadcc8408aa89609b1b604482015260640161047c565b3360009081526008602052604081208054349290610973908490611176565b90915550506001546040516001600160a01b03909116903480156108fc02916000818181858888f193505050501580156109b1573d6000803e3d6000fd5b50336001600160a01b03167f4f629a5f1c8e7fc616770a8d34896b447f3457037c40a23347478746309d73c234836040516109ed92919061118f565b60405180910390a26109ff6001600055565b50565b6060600a6000838152602001908152602001600020600101805480602002602001604051908101604052809291908181526020016000905b82821015610ae6578382906000526020600020018054610a59906110cf565b80601f0160208091040260200160405190810160405280929190818152602001828054610a85906110cf565b8015610ad25780601f10610aa757610100808354040283529160200191610ad2565b820191906000526020600020905b815481529060010190602001808311610ab557829003601f168201915b505050505081526020019060010190610a3a565b505050509050919050565b6001546000906001600160a01b03163314610b1e5760405162461bcd60e51b815260040161047c90611109565b600283511015610b6a5760405162461bcd60e51b81526020600482015260176024820152764e656564206174206c656173742032206f7074696f6e7360481b604482015260640161047c565b6009805460009182610b7b836110b6565b909155506000818152600a6020526040902090915080610b9b87826111f7565b508451610bb19060018301906020880190610c46565b50610bbc8442611176565b600482015560058101805460ff19166001179055817fc3ad3dd4f77bea708d7c21b918efa79c536b30c5048924662db7a2bd96f4831687610bfd8742611176565b604051610c0b9291906112b6565b60405180910390a250949350505050565b600260005403610c3f57604051633ee5aeb560e01b815260040160405180910390fd5b6002600055565b828054828255906000526020600020908101928215610c8c579160200282015b82811115610c8c5782518290610c7c90826111f7565b5091602001919060010190610c66565b50610c98929150610c9c565b5090565b80821115610c98576000610cb08282610cb9565b50600101610c9c565b508054610cc5906110cf565b6000825580601f10610cd5575050565b601f0160209004906000526020600020908101906109ff91905b80821115610c985760008155600101610cef565b6001600160a01b0391909116815260200190565b600060208284031215610d2957600080fd5b5035919050565b6020808252825182820181905260009190848201906040850190845b81811015610d6857835183529284019291840191600101610d4c565b50909695505050505050565b6000815180845260005b81811015610d9a57602081850181015186830182015201610d7e565b506000602082860101526020601f19601f83011685010191505092915050565b602081526000610dcd6020830184610d74565b9392505050565b606081526000610de76060830186610d74565b602083019490945250901515604090910152919050565b60008060408385031215610e1157600080fd5b50508035926020909101359150565b634e487b7160e01b600052604160045260246000fd5b604051601f8201601f191681016001600160401b0381118282101715610e5e57610e5e610e20565b604052919050565b600082601f830112610e7757600080fd5b81356001600160401b03811115610e9057610e90610e20565b610ea3601f8201601f1916602001610e36565b818152846020838601011115610eb857600080fd5b816020850160208301376000918101602001919091529392505050565b600060208284031215610ee757600080fd5b81356001600160401b03811115610efd57600080fd5b610f0984828501610e66565b949350505050565b600060208284031215610f2357600080fd5b81356001600160a01b0381168114610dcd57600080fd5b6000602080830181845280855180835260408601915060408160051b870101925083870160005b82811015610f8f57603f19888603018452610f7d858351610d74565b94509285019290850190600101610f61565b5092979650505050505050565b600080600060608486031215610fb157600080fd5b83356001600160401b0380821115610fc857600080fd5b610fd487838801610e66565b9450602091508186013581811115610feb57600080fd5b8601601f81018813610ffc57600080fd5b80358281111561100e5761100e610e20565b8060051b61101d858201610e36565b918252828101850191858101908b84111561103757600080fd5b86850192505b83831015611073578235868111156110555760008081fd5b6110638d8983890101610e66565b835250918601919086019061103d565b989b989a5050505060409690960135955050505050565b634e487b7160e01b600052603260045260246000fd5b634e487b7160e01b600052601160045260246000fd5b6000600182016110c8576110c86110a0565b5060010190565b600181811c908216806110e357607f821691505b60208210810361110357634e487b7160e01b600052602260045260246000fd5b50919050565b6020808252600b908201526a2737ba1031b932b0ba37b960a91b604082015260600190565b60006020828403121561114057600080fd5b81518015158114610dcd57600080fd5b6020808252600c908201526b2737ba10309036b2b6b132b960a11b604082015260600190565b80820180821115611189576111896110a0565b92915050565b828152604060208201526000610f096040830184610d74565b601f8211156111f257600081815260208120601f850160051c810160208610156111cf5750805b601f850160051c820191505b818110156111ee578281556001016111db565b5050505b505050565b81516001600160401b0381111561121057611210610e20565b6112248161121e84546110cf565b846111a8565b602080601f83116001811461125957600084156112415750858301515b600019600386901b1c1916600185901b1785556111ee565b600085815260208120601f198616915b8281101561128857888601518255948401946001909101908401611269565b50858210156112a65787850151600019600388901b60f8161c191681555b5050505050600190811b01905550565b6040815260006112c96040830185610d74565b9050826020830152939250505056fea2646970667358221220bb6fd042d6545bdda96b616137810937da03be19525be53ade1e42d70939377e64736f6c6343000814003360806040523480156200001157600080fd5b506040516200179c3803806200179c8339810160408190526200003491620001b6565b8084846000620000458382620002da565b506001620000548282620002da565b5050506001600160a01b0381166200008657604051631e4fbdf760e01b81526000600482015260240160405180910390fd5b62000091816200009f565b505060085550620003a69050565b600680546001600160a01b038381166001600160a01b0319831681179093556040519116919082907f8be0079c531659141344cd1fd0a4f28419497f9722a3daafe3b4186f6b6457e090600090a35050565b634e487b7160e01b600052604160045260246000fd5b600082601f8301126200011957600080fd5b81516001600160401b0380821115620001365762000136620000f1565b604051601f8301601f19908116603f01168101908282118183101715620001615762000161620000f1565b816040528381526020925086838588010111156200017e57600080fd5b600091505b83821015620001a2578582018301518183018401529082019062000183565b600093810190920192909252949350505050565b60008060008060808587031215620001cd57600080fd5b84516001600160401b0380821115620001e557600080fd5b620001f38883890162000107565b955060208701519150808211156200020a57600080fd5b50620002198782880162000107565b60408701516060880151919550935090506001600160a01b03811681146200024057600080fd5b939692955090935050565b600181811c908216806200026057607f821691505b6020821081036200028157634e487b7160e01b600052602260045260246000fd5b50919050565b601f821115620002d557600081815260208120601f850160051c81016020861015620002b05750805b601f850160051c820191505b81811015620002d157828155600101620002bc565b5050505b505050565b81516001600160401b03811115620002f657620002f6620000f1565b6200030e816200030784546200024b565b8462000287565b602080601f8311600181146200034657600084156200032d5750858301515b600019600386901b1c1916600185901b178555620002d1565b600085815260208120601f198616915b82811015620003775788860151825594840194600190910190840162000356565b5085821015620003965787850151600019600388901b60f8161c191681555b5050505050600190811b01905550565b6113e680620003b66000396000f3fe6080604052600436106101055760003560e01c806301ffc9a71461010a57806306fdde031461013f578063081812fc14610161578063095ea7b31461018e5780630de3226b146101b057806323b872dd146101d45780633ccfd60b146101f457806342842e0e146102095780636352211e1461022957806369d5f38a1461024957806370a08231146102695780637123190814610289578063715018a61461029157806376e92559146102a65780638da5cb5b146102bc57806395d89b41146102d1578063a22cb465146102e6578063a230c52414610306578063b88d4fde14610326578063c87b56dd14610346578063e985e9c514610366578063f2fde38b14610386575b600080fd5b34801561011657600080fd5b5061012a610125366004611001565b6103a6565b60405190151581526020015b60405180910390f35b34801561014b57600080fd5b506101546103f8565b604051610136919061106e565b34801561016d57600080fd5b5061018161017c366004611081565b61048a565b604051610136919061109a565b34801561019a57600080fd5b506101ae6101a93660046110ca565b61049f565b005b3480156101bc57600080fd5b506101c660085481565b604051908152602001610136565b3480156101e057600080fd5b506101ae6101ef3660046110f4565b6104ae565b34801561020057600080fd5b506101ae610542565b34801561021557600080fd5b506101ae6102243660046110f4565b61058d565b34801561023557600080fd5b50610181610244366004611081565b6105ad565b34801561025557600080fd5b506101ae610264366004611081565b6105b8565b34801561027557600080fd5b506101c6610284366004611130565b6105fb565b6101ae610643565b34801561029d57600080fd5b506101ae610741565b3480156102b257600080fd5b506101c660095481565b3480156102c857600080fd5b50610181610755565b3480156102dd57600080fd5b50610154610764565b3480156102f257600080fd5b506101ae61030136600461114b565b610773565b34801561031257600080fd5b5061012a610321366004611130565b61077e565b34801561033257600080fd5b506101ae61034136600461119d565b610791565b34801561035257600080fd5b50610154610361366004611081565b6107a8565b34801561037257600080fd5b5061012a610381366004611278565b61081d565b34801561039257600080fd5b506101ae6103a1366004611130565b61084b565b60006001600160e01b031982166380ac58cd60e01b14806103d757506001600160e01b03198216635b5e139f60e01b145b806103f257506301ffc9a760e01b6001600160e01b03198316145b92915050565b606060008054610407906112ab565b80601f0160208091040260200160405190810160405280929190818152602001828054610433906112ab565b80156104805780601f1061045557610100808354040283529160200191610480565b820191906000526020600020905b81548152906001019060200180831161046357829003601f168201915b5050505050905090565b600061049582610886565b506103f2826108be565b6104aa8282336108d9565b5050565b6001600160a01b0382166104e1576000604051633250574960e11b81526004016104d8919061109a565b60405180910390fd5b60006104ee8383336108e6565b9050836001600160a01b0316816001600160a01b03161461053c576040516364283d7b60e01b81526001600160a01b03808616600483015260248201849052821660448201526064016104d8565b50505050565b61054a6109da565b610552610755565b6001600160a01b03166108fc479081150290604051600060405180830381858888f1935050505015801561058a573d6000803e3d6000fd5b50565b6105a883838360405180602001604052806000815250610791565b505050565b60006103f282610886565b6105c06109da565b60088190556040518181527f66cbca4f3c64fecf1dcb9ce094abcf7f68c3450a1d4e3a8e917dd621edb4ebe09060200160405180910390a150565b60006001600160a01b0382166106275760006040516322718ad960e21b81526004016104d8919061109a565b506001600160a01b031660009081526003602052604090205490565b60085434101561068c5760405162461bcd60e51b8152602060048201526014602482015273125b9cdd59999a58da595b9d081c185e5b595b9d60621b60448201526064016104d8565b600780546000918261069d836112fb565b9190505590506106ad3382610a0c565b600980549060006106bd836112fb565b91905055506008543411156107095760085433906108fc906106df9034611314565b6040518115909202916000818181858888f19350505050158015610707573d6000803e3d6000fd5b505b60405181815233907fbab4562ae868d1765ed8452e98bba908a974596c4babc3ada5e90e05e3f433fb9060200160405180910390a250565b6107496109da565b6107536000610a26565b565b6006546001600160a01b031690565b606060018054610407906112ab565b6104aa338383610a78565b60008061078a836105fb565b1192915050565b61079c8484846104ae565b61053c84848484610b0e565b60606107b382610886565b5060006107cb60408051602081019091526000815290565b905060008151116107eb5760405180602001604052806000815250610816565b806107f584610c25565b604051602001610806929190611327565b6040516020818303038152906040525b9392505050565b6001600160a01b03918216600090815260056020908152604080832093909416825291909152205460ff1690565b6108536109da565b6001600160a01b03811661087d576000604051631e4fbdf760e01b81526004016104d8919061109a565b61058a81610a26565b60008061089283610cb7565b90506001600160a01b0381166103f257604051637e27328960e01b8152600481018490526024016104d8565b6000908152600460205260409020546001600160a01b031690565b6105a88383836001610cd2565b6000806108f284610cb7565b90506001600160a01b0383161561090e5761090e818486610dcf565b6001600160a01b0381161561094c5761092b600085600080610cd2565b6001600160a01b038116600090815260036020526040902080546000190190555b6001600160a01b0385161561097b576001600160a01b0385166000908152600360205260409020805460010190555b60008481526002602052604080822080546001600160a01b0319166001600160a01b0389811691821790925591518793918516917fddf252ad1be2c89b69c2b068fc378daa952ba7f163c4a11628f55a4df523b3ef91a4949350505050565b336109e3610755565b6001600160a01b031614610753573360405163118cdaa760e01b81526004016104d8919061109a565b6104aa828260405180602001604052806000815250610e33565b600680546001600160a01b038381166001600160a01b0319831681179093556040519116919082907f8be0079c531659141344cd1fd0a4f28419497f9722a3daafe3b4186f6b6457e090600090a35050565b6001600160a01b038216610aa15781604051630b61174360e31b81526004016104d8919061109a565b6001600160a01b03838116600081815260056020908152604080832094871680845294825291829020805460ff191686151590811790915591519182527f17307eab39ab6107e8899845ad3d59bd9653f200f220920489ca2b5937696c31910160405180910390a3505050565b6001600160a01b0383163b1561053c57604051630a85bd0160e11b81526001600160a01b0384169063150b7a0290610b50903390889087908790600401611356565b6020604051808303816000875af1925050508015610b8b575060408051601f3d908101601f19168201909252610b8891810190611393565b60015b610beb573d808015610bb9576040519150601f19603f3d011682016040523d82523d6000602084013e610bbe565b606091505b508051600003610be35783604051633250574960e11b81526004016104d8919061109a565b805181602001fd5b6001600160e01b03198116630a85bd0160e11b14610c1e5783604051633250574960e11b81526004016104d8919061109a565b5050505050565b60606000610c3283610e4a565b60010190506000816001600160401b03811115610c5157610c51611187565b6040519080825280601f01601f191660200182016040528015610c7b576020820181803683370190505b5090508181016020015b600019016f181899199a1a9b1b9c1cb0b131b232b360811b600a86061a8153600a8504945084610c8557509392505050565b6000908152600260205260409020546001600160a01b031690565b8080610ce657506001600160a01b03821615155b15610d9f576000610cf684610886565b90506001600160a01b03831615801590610d225750826001600160a01b0316816001600160a01b031614155b8015610d355750610d33818461081d565b155b15610d55578260405163a9fbf51f60e01b81526004016104d8919061109a565b8115610d9d5783856001600160a01b0316826001600160a01b03167f8c5be1e5ebec7d5bd14f71427d1e84f3dd0314c0f7b2291e5b200ac8c7c3b92560405160405180910390a45b505b5050600090815260046020526040902080546001600160a01b0319166001600160a01b0392909216919091179055565b610dda838383610f20565b6105a8576001600160a01b038316610e0857604051637e27328960e01b8152600481018290526024016104d8565b60405163177e802f60e01b81526001600160a01b0383166004820152602481018290526044016104d8565b610e3d8383610f86565b6105a86000848484610b0e565b60008072184f03e93ff9f4daa797ed6e38ed64bf6a1f0160401b8310610e895772184f03e93ff9f4daa797ed6e38ed64bf6a1f0160401b830492506040015b6904ee2d6d415b85acef8160201b8310610eb3576904ee2d6d415b85acef8160201b830492506020015b662386f26fc100008310610ed157662386f26fc10000830492506010015b6305f5e1008310610ee9576305f5e100830492506008015b6127108310610efd57612710830492506004015b60648310610f0f576064830492506002015b600a83106103f25760010192915050565b60006001600160a01b03831615801590610f7e5750826001600160a01b0316846001600160a01b03161480610f5a5750610f5a848461081d565b80610f7e5750826001600160a01b0316610f73836108be565b6001600160a01b0316145b949350505050565b6001600160a01b038216610fb0576000604051633250574960e11b81526004016104d8919061109a565b6000610fbe838360006108e6565b90506001600160a01b038116156105a85760006040516339e3563760e11b81526004016104d8919061109a565b6001600160e01b03198116811461058a57600080fd5b60006020828403121561101357600080fd5b813561081681610feb565b60005b83811015611039578181015183820152602001611021565b50506000910152565b6000815180845261105a81602086016020860161101e565b601f01601f19169290920160200192915050565b6020815260006108166020830184611042565b60006020828403121561109357600080fd5b5035919050565b6001600160a01b0391909116815260200190565b80356001600160a01b03811681146110c557600080fd5b919050565b600080604083850312156110dd57600080fd5b6110e6836110ae565b946020939093013593505050565b60008060006060848603121561110957600080fd5b611112846110ae565b9250611120602085016110ae565b9150604084013590509250925092565b60006020828403121561114257600080fd5b610816826110ae565b6000806040838503121561115e57600080fd5b611167836110ae565b91506020830135801515811461117c57600080fd5b809150509250929050565b634e487b7160e01b600052604160045260246000fd5b600080600080608085870312156111b357600080fd5b6111bc856110ae565b93506111ca602086016110ae565b92506040850135915060608501356001600160401b03808211156111ed57600080fd5b818701915087601f83011261120157600080fd5b81358181111561121357611213611187565b604051601f8201601f19908116603f0116810190838211818310171561123b5761123b611187565b816040528281528a602084870101111561125457600080fd5b82602086016020830137600060208483010152809550505050505092959194509250565b6000806040838503121561128b57600080fd5b611294836110ae565b91506112a2602084016110ae565b90509250929050565b600181811c908216806112bf57607f821691505b6020821081036112df57634e487b7160e01b600052602260045260246000fd5b50919050565b634e487b7160e01b600052601160045260246000fd5b60006001820161130d5761130d6112e5565b5060010190565b818103818111156103f2576103f26112e5565b6000835161133981846020880161101e565b83519083019061134d81836020880161101e565b01949350505050565b6001600160a01b038581168252841660208201526040810183905260806060820181905260009061138990830184611042565b9695505050505050565b6000602082840312156113a557600080fd5b815161081681610feb56fea2646970667358221220e56b250bf5ff76f83ab6b1880bf9a9e1ac0f5a4b92a27807daa93d2fe08d755264736f6c6343000814003360806040523480156200001157600080fd5b5060405162001c2038038062001c208339810160408190526200003491620000f7565b6040805160208101909152600081528190620000508162000093565b506001600160a01b0381166200008057604051631e4fbdf760e01b81526000600482015260240160405180910390fd5b6200008b81620000a5565b50506200029a565b6002620000a18282620001ce565b5050565b600380546001600160a01b038381166001600160a01b0319831681179093556040519116919082907f8be0079c531659141344cd1fd0a4f28419497f9722a3daafe3b4186f6b6457e090600090a35050565b6000602082840312156200010a57600080fd5b81516001600160a01b03811681146200012257600080fd5b9392505050565b634e487b7160e01b600052604160045260246000fd5b600181811c908216806200015457607f821691505b6020821081036200017557634e487b7160e01b600052602260045260246000fd5b50919050565b601f821115620001c957600081815260208120601f850160051c81016020861015620001a45750805b601f850160051c820191505b81811015620001c557828155600101620001b0565b5050505b505050565b81516001600160401b03811115620001ea57620001ea62000129565b6200020281620001fb84546200013f565b846200017b565b602080601f8311600181146200023a5760008415620002215750858301515b600019600386901b1c1916600185901b178555620001c5565b600085815260208120601f198616915b828110156200026b578886015182559484019460019091019084016200024a565b50858210156200028a5787850151600019600388901b60f8161c191681555b5050505050600190811b01905550565b61197680620002aa6000396000f3fe6080604052600436106100c25760003560e01c8062fdd58e146100c757806301ffc9a7146100fa5780630e73afdf1461012a5780630e89341c1461015a5780632eb2c2d6146101875780633ccfd60b146101a95780634e1273f4146101be578063553cd765146101eb578063715018a6146101fe57806374449ca4146102135780638da5cb5b1461022857806390cd58191461024a578063a22cb4651461026a578063e985e9c51461028a578063f242432a146102aa578063f2fde38b146102ca575b600080fd5b3480156100d357600080fd5b506100e76100e23660046110c6565b6102ea565b6040519081526020015b60405180910390f35b34801561010657600080fd5b5061011a610115366004611106565b610312565b60405190151581526020016100f1565b34801561013657600080fd5b5061014a61014536600461112a565b610362565b6040516100f19493929190611189565b34801561016657600080fd5b5061017a61017536600461112a565b610415565b6040516100f191906111b8565b34801561019357600080fd5b506101a76101a2366004611316565b6104ba565b005b3480156101b557600080fd5b506101a761051b565b3480156101ca57600080fd5b506101de6101d93660046113bf565b610566565b6040516100f191906114b9565b6101a76101f93660046114cc565b610636565b34801561020a57600080fd5b506101a7610807565b34801561021f57600080fd5b506004546100e7565b34801561023457600080fd5b5061023d61081b565b6040516100f191906114ee565b34801561025657600080fd5b506100e7610265366004611502565b61082a565b34801561027657600080fd5b506101a7610285366004611565565b6108e6565b34801561029657600080fd5b5061011a6102a53660046115a1565b6108f5565b3480156102b657600080fd5b506101a76102c53660046115d4565b610923565b3480156102d657600080fd5b506101a76102e5366004611638565b610973565b6000818152602081815260408083206001600160a01b03861684529091529020545b92915050565b60006001600160e01b03198216636cdb3d1360e11b148061034357506001600160e01b031982166303a24d0760e21b145b8061030c57506301ffc9a760e01b6001600160e01b031983161461030c565b60056020526000908152604090208054600182015460028301546003840180549394929391929161039290611653565b80601f01602080910402602001604051908101604052809291908181526020018280546103be90611653565b801561040b5780601f106103e05761010080835404028352916020019161040b565b820191906000526020600020905b8154815290600101906020018083116103ee57829003601f168201915b5050505050905084565b600081815260056020526040902060030180546060919061043590611653565b80601f016020809104026020016040519081016040528092919081815260200182805461046190611653565b80156104ae5780601f10610483576101008083540402835291602001916104ae565b820191906000526020600020905b81548152906001019060200180831161049157829003601f168201915b50505050509050919050565b336001600160a01b03861681148015906104db57506104d986826108f5565b155b1561050657808660405163711bec9160e11b81526004016104fd92919061168d565b60405180910390fd5b61051386868686866109ae565b505050505050565b610523610a15565b61052b61081b565b6001600160a01b03166108fc479081150290604051600060405180830381858888f19350505050158015610563573d6000803e3d6000fd5b50565b606081518351146105975781518351604051635b05999160e01b8152600481019290925260248201526044016104fd565b600083516001600160401b038111156105b2576105b26111cb565b6040519080825280602002602001820160405280156105db578160200160208202803683370190505b50905060005b845181101561062e576106016105f78683610a47565b6100e28684610a47565b828281518110610613576106136116a7565b6020908102919091010152610627816116d3565b90506105e1565b509392505050565b6000828152600560205260409020600181015461068e5760405162461bcd60e51b815260206004820152601660248201527510dbdb9d195b9d08191bd95cc81b9bdd08195e1a5cdd60521b60448201526064016104fd565b80600101548282600201546106a391906116ec565b11156106e65760405162461bcd60e51b815260206004820152601260248201527145786365656473206d617820737570706c7960701b60448201526064016104fd565b80546106f39083906116ff565b3410156107395760405162461bcd60e51b8152602060048201526014602482015273125b9cdd59999a58da595b9d081c185e5b595b9d60621b60448201526064016104fd565b8181600201600082825461074d91906116ec565b9250508190555061076f33848460405180602001604052806000815250610a55565b805461077c9083906116ff565b3411156107ca57805433906108fc906107969085906116ff565b6107a09034611716565b6040518115909202916000818181858888f193505050501580156107c8573d6000803e3d6000fd5b505b604051828152339084907fc48688bb4f81faa9a189102a2f3a2ff9e3c217037cc67b6a2829672176940242906020015b60405180910390a3505050565b61080f610a15565b6108196000610a9e565b565b6003546001600160a01b031690565b6000610834610a15565b6004805460009182610845836116d3565b909155506040805160808101825287815260208082018881526000838501818152606085018a815287835260059094529490208351815590516001820155925160028401555192935091600382019061089e9082611774565b50905050807f5babc075e07d10206474b5fc21410d62a99e15b4c45f33656671be31fcc898368686866040516108d693929190611833565b60405180910390a2949350505050565b6108f1338383610af0565b5050565b6001600160a01b03918216600090815260016020908152604080832093909416825291909152205460ff1690565b336001600160a01b0386168114801590610944575061094286826108f5565b155b1561096657808660405163711bec9160e11b81526004016104fd92919061168d565b6105138686868686610b7e565b61097b610a15565b6001600160a01b0381166109a5576000604051631e4fbdf760e01b81526004016104fd91906114ee565b61056381610a9e565b6001600160a01b0384166109d8576000604051632bfa23e760e11b81526004016104fd91906114ee565b6001600160a01b038516610a01576000604051626a0d4560e21b81526004016104fd91906114ee565b610a0e8585858585610bf8565b5050505050565b33610a1e61081b565b6001600160a01b031614610819573360405163118cdaa760e01b81526004016104fd91906114ee565b602090810291909101015190565b6001600160a01b038416610a7f576000604051632bfa23e760e11b81526004016104fd91906114ee565b600080610a8c8585610c5d565b91509150610513600087848487610bf8565b600380546001600160a01b038381166001600160a01b0319831681179093556040519116919082907f8be0079c531659141344cd1fd0a4f28419497f9722a3daafe3b4186f6b6457e090600090a35050565b6001600160a01b038216610b1957600060405162ced3e160e81b81526004016104fd91906114ee565b6001600160a01b03838116600081815260016020908152604080832094871680845294825291829020805460ff191686151590811790915591519182527f17307eab39ab6107e8899845ad3d59bd9653f200f220920489ca2b5937696c3191016107fa565b6001600160a01b038416610ba8576000604051632bfa23e760e11b81526004016104fd91906114ee565b6001600160a01b038516610bd1576000604051626a0d4560e21b81526004016104fd91906114ee565b600080610bde8585610c5d565b91509150610bef8787848487610bf8565b50505050505050565b610c0485858585610c85565b6001600160a01b03841615610a0e5782513390600103610c4f576000610c2a8582610a47565b90506000610c388582610a47565b9050610c48838989858589610eb8565b5050610513565b610513818787878787610fca565b6040805160018082526020820194909452808201938452606081019290925260808201905291565b8051825114610cb45781518151604051635b05999160e01b8152600481019290925260248201526044016104fd565b3360005b8351811015610dcd576000610ccd8583610a47565b90506000610cdb8584610a47565b90506001600160a01b03881615610d75576000828152602081815260408083206001600160a01b038c16845290915290205481811015610d4e576040516303dee4c560e01b81526001600160a01b038a1660048201526024810182905260448101839052606481018490526084016104fd565b6000838152602081815260408083206001600160a01b038d16845290915290209082900390555b6001600160a01b03871615610dba576000828152602081815260408083206001600160a01b038b16845290915281208054839290610db49084906116ec565b90915550505b505080610dc6906116d3565b9050610cb8565b508251600103610e5a576000610de38482610a47565b90506000610df18482610a47565b9050856001600160a01b0316876001600160a01b0316846001600160a01b03167fc3d58168c5ae7397731d063d5bbf3d657854427343f4c083240f7aacaa2d0f628585604051610e4b929190918252602082015260400190565b60405180910390a45050610a0e565b836001600160a01b0316856001600160a01b0316826001600160a01b03167f4a39dc06d4c0dbc64b70af90fd698a233a518aa5d07e595d983b8c0526c8f7fb8686604051610ea992919061185b565b60405180910390a45050505050565b6001600160a01b0384163b156105135760405163f23a6e6160e01b81526001600160a01b0385169063f23a6e6190610efc9089908990889088908890600401611880565b6020604051808303816000875af1925050508015610f37575060408051601f3d908101601f19168201909252610f34918101906118c5565b60015b610f97573d808015610f65576040519150601f19603f3d011682016040523d82523d6000602084013e610f6a565b606091505b508051600003610f8f5784604051632bfa23e760e11b81526004016104fd91906114ee565b805181602001fd5b6001600160e01b0319811663f23a6e6160e01b14610bef5784604051632bfa23e760e11b81526004016104fd91906114ee565b6001600160a01b0384163b156105135760405163bc197c8160e01b81526001600160a01b0385169063bc197c819061100e90899089908890889088906004016118e2565b6020604051808303816000875af1925050508015611049575060408051601f3d908101601f19168201909252611046918101906118c5565b60015b611077573d808015610f65576040519150601f19603f3d011682016040523d82523d6000602084013e610f6a565b6001600160e01b0319811663bc197c8160e01b14610bef5784604051632bfa23e760e11b81526004016104fd91906114ee565b80356001600160a01b03811681146110c157600080fd5b919050565b600080604083850312156110d957600080fd5b6110e2836110aa565b946020939093013593505050565b6001600160e01b03198116811461056357600080fd5b60006020828403121561111857600080fd5b8135611123816110f0565b9392505050565b60006020828403121561113c57600080fd5b5035919050565b6000815180845260005b818110156111695760208185018101518683018201520161114d565b506000602082860101526020601f19601f83011685010191505092915050565b8481528360208201528260408201526080606082015260006111ae6080830184611143565b9695505050505050565b6020815260006111236020830184611143565b634e487b7160e01b600052604160045260246000fd5b604051601f8201601f191681016001600160401b0381118282101715611209576112096111cb565b604052919050565b60006001600160401b0382111561122a5761122a6111cb565b5060051b60200190565b600082601f83011261124557600080fd5b8135602061125a61125583611211565b6111e1565b82815260059290921b8401810191818101908684111561127957600080fd5b8286015b84811015611294578035835291830191830161127d565b509695505050505050565b60006001600160401b038311156112b8576112b86111cb565b6112cb601f8401601f19166020016111e1565b90508281528383830111156112df57600080fd5b828260208301376000602084830101529392505050565b600082601f83011261130757600080fd5b6111238383356020850161129f565b600080600080600060a0868803121561132e57600080fd5b611337866110aa565b9450611345602087016110aa565b935060408601356001600160401b038082111561136157600080fd5b61136d89838a01611234565b9450606088013591508082111561138357600080fd5b61138f89838a01611234565b935060808801359150808211156113a557600080fd5b506113b2888289016112f6565b9150509295509295909350565b600080604083850312156113d257600080fd5b82356001600160401b03808211156113e957600080fd5b818501915085601f8301126113fd57600080fd5b8135602061140d61125583611211565b82815260059290921b8401810191818101908984111561142c57600080fd5b948201945b8386101561145157611442866110aa565b82529482019490820190611431565b9650508601359250508082111561146757600080fd5b5061147485828601611234565b9150509250929050565b600081518084526020808501945080840160005b838110156114ae57815187529582019590820190600101611492565b509495945050505050565b602081526000611123602083018461147e565b600080604083850312156114df57600080fd5b50508035926020909101359150565b6001600160a01b0391909116815260200190565b60008060006060848603121561151757600080fd5b833592506020840135915060408401356001600160401b0381111561153b57600080fd5b8401601f8101861361154c57600080fd5b61155b8682356020840161129f565b9150509250925092565b6000806040838503121561157857600080fd5b611581836110aa565b91506020830135801515811461159657600080fd5b809150509250929050565b600080604083850312156115b457600080fd5b6115bd836110aa565b91506115cb602084016110aa565b90509250929050565b600080600080600060a086880312156115ec57600080fd5b6115f5866110aa565b9450611603602087016110aa565b9350604086013592506060860135915060808601356001600160401b0381111561162c57600080fd5b6113b2888289016112f6565b60006020828403121561164a57600080fd5b611123826110aa565b600181811c9082168061166757607f821691505b60208210810361168757634e487b7160e01b600052602260045260246000fd5b50919050565b6001600160a01b0392831681529116602082015260400190565b634e487b7160e01b600052603260045260246000fd5b634e487b7160e01b600052601160045260246000fd5b6000600182016116e5576116e56116bd565b5060010190565b8082018082111561030c5761030c6116bd565b808202811582820484141761030c5761030c6116bd565b8181038181111561030c5761030c6116bd565b601f82111561176f57600081815260208120601f850160051c810160208610156117505750805b601f850160051c820191505b818110156105135782815560010161175c565b505050565b81516001600160401b0381111561178d5761178d6111cb565b6117a18161179b8454611653565b84611729565b602080601f8311600181146117d657600084156117be5750858301515b600019600386901b1c1916600185901b178555610513565b600085815260208120601f198616915b82811015611805578886015182559484019460019091019084016117e6565b50858210156118235787850151600019600388901b60f8161c191681555b5050505050600190811b01905550565b8381528260208201526060604082015260006118526060830184611143565b95945050505050565b60408152600061186e604083018561147e565b8281036020840152611852818561147e565b6001600160a01b03868116825285166020820152604081018490526060810183905260a0608082018190526000906118ba90830184611143565b979650505050505050565b6000602082840312156118d757600080fd5b8151611123816110f0565b6001600160a01b0386811682528516602082015260a06040820181905260009061190e9083018661147e565b8281036060840152611920818661147e565b905082810360808401526119348185611143565b9897505050505050505056fea2646970667358221220983a33c459d53c49ab0362a8078d79d97ec1f9a008881f5fd016db471dd7f23d64736f6c63430008140033608060405234801561001057600080fd5b50604051610d1b380380610d1b83398101604081905261002f916100c2565b806001600160a01b03811661005e57604051631e4fbdf760e01b81526000600482015260240160405180910390fd5b61006781610072565b5050600180556100f2565b600080546001600160a01b038381166001600160a01b0319831681178455604051919092169283917f8be0079c531659141344cd1fd0a4f28419497f9722a3daafe3b4186f6b6457e09190a35050565b6000602082840312156100d457600080fd5b81516001600160a01b03811681146100eb57600080fd5b9392505050565b610c1a806101016000396000f3fe6080604052600436106100815760003560e01c8063141961bc14610086578063155dd5ee146100f0578063278ecde1146101125780633d891f59146101325780636b5ca27d14610178578063715018a6146101985780638da5cb5b146101ad578063a31ec2d4146101cf578063c1cbbca7146101ef578063f2fde38b14610202575b600080fd5b34801561009257600080fd5b506100d66100a13660046109d7565b600360208190526000918252604090912080546001820154600283015492909301549092919060ff8082169161010090041685565b6040516100e7959493929190610a2a565b60405180910390f35b3480156100fc57600080fd5b5061011061010b3660046109d7565b610222565b005b34801561011e57600080fd5b5061011061012d3660046109d7565b610351565b34801561013e57600080fd5b5061016a61014d366004610a7f565b600460209081526000928352604080842090915290825290205481565b6040519081526020016100e7565b34801561018457600080fd5b506101106101933660046109d7565b6104d4565b3480156101a457600080fd5b50610110610635565b3480156101b957600080fd5b506101c2610649565b6040516100e79190610aab565b3480156101db57600080fd5b5061016a6101ea366004610abf565b610658565b6101106101fd3660046109d7565b610792565b34801561020e57600080fd5b5061011061021d366004610afc565b6108f0565b61022a61092b565b61023261095d565b60008181526003602052604090206001600382810154610100900460ff1690811115610260576102606109f0565b146102ac5760405162461bcd60e51b815260206004820152601760248201527610d85b5c185a59db881b9bdd081cdd58d8d95cdcd99d5b604a1b60448201526064015b60405180910390fd5b600281018054600090915560038201805461ff0019166103001790556102d0610649565b6001600160a01b03166108fc829081150290604051600060405180830381858888f19350505050158015610308573d6000803e3d6000fd5b50827fd66662c0ded9e58fd31d5e44944bcfd07ffc15e6927ecc1382e7941cb7bd24c48260405161033b91815260200190565b60405180910390a2505061034e60018055565b50565b61035961095d565b60008181526003602052604090206002600382810154610100900460ff1690811115610387576103876109f0565b146103cc5760405162461bcd60e51b8152602060048201526015602482015274526566756e6473206e6f7420617661696c61626c6560581b60448201526064016102a3565b60008281526004602090815260408083203384529091529020548061042f5760405162461bcd60e51b8152602060048201526019602482015278139bc818dbdb9d1c9a589d5d1a5bdb881d1bc81c99599d5b99603a1b60448201526064016102a3565b6000838152600460209081526040808320338452909152812081905560028301805483929061045f908490610b34565b9091555050604051339082156108fc029083906000818181858888f19350505050158015610491573d6000803e3d6000fd5b50604051818152339084907f7ca5472b7ea78c2c0141c5a12ee6d170cf4ce8ed06be3d22c8252ddfc7a6a2c49060200160405180910390a3505061034e60018055565b600081815260036020526040812090600382810154610100900460ff1690811115610501576105016109f0565b1461051e5760405162461bcd60e51b81526004016102a390610b4d565b806001015442101561056b5760405162461bcd60e51b815260206004820152601660248201527543616d706169676e207374696c6c206f6e676f696e6760501b60448201526064016102a3565b805460028201541061058d5760038101805461ff0019166101001790556105e2565b6000600382015460ff1660018111156105a8576105a86109f0565b146105b45760016105b7565b60025b8160030160016101000a81548160ff021916908360038111156105dc576105dc6109f0565b02179055505b817f242b7d43c73f615dfdfa4919702ad9db4880a3b095d19100eb73c3d05e92be158260030160019054906101000a900460ff168360020154604051610629929190610b7a565b60405180910390a25050565b61063d61092b565b6106476000610987565b565b6000546001600160a01b031690565b600061066261092b565b600280546000918261067383610b95565b9190505590506040518060a0016040528086815260200185426106969190610bae565b8152602001600081526020018460018111156106b4576106b46109f0565b8152602001600090526000828152600360208181526040928390208451815590840151600180830191909155928401516002820155606084015191810180549193909160ff191690838181111561070d5761070d6109f0565b021790555060808201518160030160016101000a81548160ff0219169083600381111561073c5761073c6109f0565b02179055508291507f773f71a4c22bd4be60ea1217b6a12317409936f776458fb130c6bdd9984741f29050866107728742610bae565b8660405161078293929190610bc1565b60405180910390a2949350505050565b600081815260036020526040812090600382810154610100900460ff16908111156107bf576107bf6109f0565b146107dc5760405162461bcd60e51b81526004016102a390610b4d565b806001015442106108205760405162461bcd60e51b815260206004820152600e60248201526d10d85b5c185a59db88195b99195960921b60448201526064016102a3565b6000341161086c5760405162461bcd60e51b81526020600482015260196024820152784d75737420636f6e7472696275746520736f6d657468696e6760381b60448201526064016102a3565b600082815260046020908152604080832033845290915281208054349290610895908490610bae565b92505081905550348160020160008282546108b09190610bae565b9091555050604051348152339083907f0a4a91237423e0a1766a761c7cb029311d8b95d6b1b81db1b949a70c98b4e08e9060200160405180910390a35050565b6108f861092b565b6001600160a01b038116610922576000604051631e4fbdf760e01b81526004016102a39190610aab565b61034e81610987565b33610934610649565b6001600160a01b031614610647573360405163118cdaa760e01b81526004016102a39190610aab565b60026001540361098057604051633ee5aeb560e01b815260040160405180910390fd5b6002600155565b600080546001600160a01b038381166001600160a01b0319831681178455604051919092169283917f8be0079c531659141344cd1fd0a4f28419497f9722a3daafe3b4186f6b6457e09190a35050565b6000602082840312156109e957600080fd5b5035919050565b634e487b7160e01b600052602160045260246000fd5b60028110610a1657610a166109f0565b9052565b60048110610a1657610a166109f0565b858152602081018590526040810184905260a08101610a4c6060830185610a06565b610a596080830184610a1a565b9695505050505050565b80356001600160a01b0381168114610a7a57600080fd5b919050565b60008060408385031215610a9257600080fd5b82359150610aa260208401610a63565b90509250929050565b6001600160a01b0391909116815260200190565b600080600060608486031215610ad457600080fd5b8335925060208401359150604084013560028110610af157600080fd5b809150509250925092565b600060208284031215610b0e57600080fd5b610b1782610a63565b9392505050565b634e487b7160e01b600052601160045260246000fd5b81810381811115610b4757610b47610b1e565b92915050565b60208082526013908201527243616d706169676e206e6f742061637469766560681b604082015260600190565b60408101610b888285610a1a565b8260208301529392505050565b600060018201610ba757610ba7610b1e565b5060010190565b80820180821115610b4757610b47610b1e565b8381526020810183905260608101610bdc6040830184610a06565b94935050505056fea2646970667358221220c964c4dd73269af61f5328e619546e6eb5e5acf3fe1c650e18bd46278d395c2f64736f6c63430008140033a2646970667358221220e25ab727a2cedcc91eefba5828b65d84a91e3dce3f0391d2e554fdce7c80eae364736f6c63430008140033",
  "devdoc": {
    "kind": "dev",
    "methods": {},
    "version": 1
  },
  "userdoc": {
    "kind": "user",
    "methods": {},
    "version": 1
  },
  "storageLayout": {
    "storage": [
      {
        "astId": 4536,
        "contract": "contracts/CreatorPlatform.sol:CreatorPlatform",
        "label": "allCreatorSpaces",
        "offset": 0,
        "slot": "0",
        "type": "t_array(t_address)dyn_storage"
      },
      {
        "astId": 4541,
        "contract": "contracts/CreatorPlatform.sol:CreatorPlatform",
        "label": "creatorToSpaces",
        "offset": 0,
        "slot": "1",
        "type": "t_mapping(t_address,t_array(t_address)dyn_storage)"
      },
      {
        "astId": 4545,
        "contract": "contracts/CreatorPlatform.sol:CreatorPlatform",
        "label": "isCreatorSpace",
        "offset": 0,
        "slot": "2",
        "type": "t_mapping(t_address,t_bool)"
      }
    ],
    "types": {
      "t_address": {
        "encoding": "inplace",
        "label": "address",
        "numberOfBytes": "20"
      },
      "t_array(t_address)dyn_storage": {
        "base": "t_address",
        "encoding": "dynamic_array",
        "label": "address[]",
        "numberOfBytes": "32"
      },
      "t_bool": {
        "encoding": "inplace",
        "label": "bool",
        "numberOfBytes": "1"
      },
      "t_mapping(t_address,t_array(t_address)dyn_storage)": {
        "encoding": "mapping",
        "key": "t_address",
        "label": "mapping(address => address[])",
        "numberOfBytes": "32",
        "value": "t_array(t_address)dyn_storage"
      },
      "t_mapping(t_address,t_bool)": {
        "encoding": "mapping",
        "key": "t_address",
        "label": "mapping(address => bool)",
        "numberOfBytes": "32",
        "value": "t_bool"
      }
    }
  }
}